:020000041000EA
:10000000002008205B0100101B0100101D010010E2
:100010001101001011010010110100101101001058
:100020001901001019010010190100101F01001022
:10003000110100101901001021010010230100100E
:100040001101001011010010110100101101001028
:100050001101001011010010110100101101001018
:100060001101001011010010110100101101001008
:1000700011010010110100101101001011010010F8
:1000800011010010110100101101001011010010E8
:1000900011010010110100101101001011010010D8
:1000A00011010010110100101101001011010010C8
:1000B00011010010110100101101001011010010B8
:1000C00011010010110100101101001011010010A8
:1000D0001101001011010010110100101101001098
:1000E0001101001011010010110100101101001088
:1000F0001101001011010010110100101101001078
:100100001101001011010010110100101101001067
:10011000EFF30580103800BE00BE00BE00BE00BE7A
:1001200000BE00BEF2EB88715060001070600010DD
:100130009C01001090A31AE7D3DEFFFF42012110BB
:10014000FF0100005C660000793512AB00201E49FB
:10015000086006C881F3088810474FF050400068D7
:1001600008B10020F3E70DA40ECC002902D000F066
:1001700012F8F9E71549164A002000E001C1914242
:10018000FCD114498847144988471449884700BE60
:10019000FDE701C901C29A42FBD3704770600010AD
:1001A000100100203408002094670010000008208F
:1001B000000008209467001000100820001008209C
:1001C000000000007047000008ED00E03408002047
:1001D0001C100020192A0010F5040010112A00102C
:1001E0002DE9F0432DED088B002083B000F09EFC3C
:1001F0004FF00009DFED85AAB1EE00AA07EE909A54
:10020000F8EEE77A00249E2367EEAA7A17215120A0
:100210001A46009417EE906A802700F06DFD09EEF3
:10022000904ADFF8F4810024B3EE00BA18F8015FB9
:1002300047FA04F32B423AD007EE904AF8EEE98AE7
:10024000B8EEE78AF1EE087A304678EEE78A02F0F7
:10025000A2FA0346304609EE103A02F099FA38EE57
:100260004A8A07EE100A68EE8B8A28EE0B8A67EE40
:10027000687AE8EE097AFDEEE77A17EE900A9A308E
:10028000B0F59A7F13D828EE078AA8EE898ABDEECA
:10029000C88A18EE101A6031C12980B289B206D816
:1002A00040F2FF720C2300921A4600F025FD013443
:1002B000082CBDD119EE903A01330C2B09EE903A7F
:1002C000B1D11E2009F1010901F050FEB9F1180F5A
:1002D00094D1002000F02AFC41F28204032700267A
:1002E000DFF82C81234642461E214F2041F2820531
:1002F000CDE9006700F006FF322001F037FE4BF237
:1003000096532C44A4B29C42ECD1CDE900674FF641
:10031000FF731E214F203E4A00F0F4FEC82001F07A
:1003200025FE05270026DFF8EC802B4642465621A5
:100330005E2041F28204CDE9006700F0E3FE322046
:1003400001F014FE4BF296532544ADB29D42ECD120
:100350004FF6FF7356215E20CDE900672D4A00F06D
:10036000D1FE4FF4967001F001FE082600256308C7
:1003700037223E21C620CDE9005600F07BFD322019
:1003800001F0F4FD49F2924304F584540234A4B21E
:100390009C42ECD10024CDE9005640F2FF73372295
:1003A0003E21C62000F066FD082526464FF49670D3
:1003B00001F0DCFD14F0010712D140F2FF73372287
:1003C0003E21C620CDE9007500F054FD022C14D06A
:1003D00001244FF4967001F0C9FD14F00107ECD030
:1003E0004FF4FC6337223E21C620CDE9006500F0C2
:1003F00041FD022C01D00224D8E74FF47A7003B0FB
:10040000BDEC088BBDE8F04301F0B0BD8B0A863E21
:100410003C5A0010445A00109F5C0010F0B54FF099
:100420005044636883B01E0205D40A2001F09EFD8B
:1004300063681D02F9D502251F241E2001F096FDD8
:100440001F2000F073FBCDE900454FF6FF731E211E
:100450000F20254A00F056FECDE900454FF6E07327
:1004600050210F20214A00F04DFECDE900454FF606
:10047000E0736E210F201E4A00F044FE002418276E
:1004800019264FF0504502E0C82001F06FFD44EC02
:10049000407084F0010444EC40606B681802F3D4AF
:1004A0001E2001F063FD6B681902EDD46B681A021F
:1004B00007D44FF050440A2001F058FD63681B0236
:1004C000F9D51E2001F052FD18234FF0010242EC35
:1004D000403019234FF0000242EC4030002003B0BE
:1004E000BDE8F04000F022BB485A0010545A0010FA
:1004F000605A0010F8B502F08BFB182000F072FE75
:1005000018254FF0010444EC4450192000F06AFE15
:10051000192344EC443005244FF000074FF0010646
:1005200046EC4050642001F021FD47EC405064202F
:1005300001F01CFD013CF1D146EC405000F08CF97B
:10054000172000F04FFE172047EC440022464FF0E2
:100550005044012100F022FE6368180221D5FFF704
:100560003FFE4FF001064FF000050CE0192446EC69
:1005700040404FF4FA7001F0F9FC45EC40404FF474
:10058000FA7001F0F3FC4FF0504463681A02EDD4A6
:100590001E2001F0EBFC63681B02E7D4FFF73EFF6F
:1005A000E4E71E2001F0E2FC63681902D7D4FFF7EC
:1005B00035FFD4E72DE9F041012482B08DF80740E2
:1005C00000BF002747EC407047EC404000BFDFF819
:1005D0008482224640460DF1070105F0FDF900BF77
:1005E00044EC4040372001F0C1FC11238DF8073066
:1005F00000BF47EC407047EC404000BF22464046F9
:100600000DF1070105F0E8F900BF44EC4040372048
:1006100001F0ACFC3A238DF8073000BF47EC407086
:1006200047EC404000BF224640460DF1070105F06F
:10063000D3F900BF44EC404055238DF8073000BF8C
:1006400044EC407047EC404000BF224640460DF16C
:10065000070105F0C1F900BF44EC404036238DF896
:10066000073000BF47EC407047EC404000BF2246D7
:1006700040460DF1070105F0AFF900BF44EC4040E2
:1006800060238DF8073000BF44EC407047EC4040D9
:1006900000BF224640460DF1070105F09DF900BF5D
:1006A00044EC404021238DF8073000BF47EC4070F8
:1006B00047EC404000BF224640460DF1070105F0DF
:1006C0008BF900BF44EC40402A238DF8073000BF6F
:1006D00047EC407047EC404000BF224640460DF1D9
:1006E000070105F079F900BF44EC40408DF8077030
:1006F00000BF44EC407047EC404000BF22464046FB
:100700000DF1070105F068F900BF44EC40408DF899
:10071000067000BF44EC407047EC404000BF2246EA
:1007200040460DF1060105F057F900BF44EC40408A
:100730008DF8054000BF44EC407047EC404000BFDE
:10074000224640460DF1050105F046F900BF44EC94
:1007500040403F238DF8053000BF44EC407047EC2B
:10076000404000BF224640460DF1050105F034F936
:1007700000BF44EC40402B238DF8053000BF47EC10
:10078000407047EC404000BF224640460DF1050155
:1007900005F022F900BF44EC40408DF8057000BF21
:1007A00044EC407047EC404000BF224640460DF10B
:1007B000050105F011F900BF44EC40408DF80470CC
:1007C00000BF44EC407047EC404000BF224640462A
:1007D00001A905F001F900BF44EC40408DF8037019
:1007E00000BF44EC407047EC404000BF224640460A
:1007F0000DF1030105F0F0F800BF44EC4040CC23BC
:100800008DF8023000BF44EC407047EC404000BF20
:10081000224640460DF1020105F0DEF800BF44EC2F
:10082000404029238DF8023000BF47EC407047EC70
:10083000404000BF224640460DF1020105F0CCF8D1
:1008400000BF44EC4040372001F090FB02B0BDE80F
:10085000F08100BF00000840F8B50C2000F0C2FC99
:1008600001240C2644EC4460002000F0BBFC00276F
:1008700044EC4470204600F0B5FC44EC444044ECA9
:10088000404044EC4060642001F070FB47EC406065
:10089000642001F06BFB44EC40600226642001F010
:1008A00065FB184D2146032000F05AFC214602202A
:1008B00000F056FC2846144904F0D6FF0321134BE0
:1008C0006A685E602B68DFF84CC0114883F007034C
:1008D000324003F0CF03CCF800304260084600F00D
:1008E00071FC3046032100F06DFC3846032100F016
:1008F00069FC2046032100F065FCBDE8F840FFF7E5
:1009000059BE00BF00000840A0ACB9030030084049
:1009100000200840001008402DE9F04F85B0BDF8D8
:100920003840814600942A24884616469A468DF817
:100930000F4000BF002444EC40404FF0010B44EC5A
:1009400040B000BF78485A460DF10F0105F044F859
:1009500000BF4BEC40B04FEA19238DF80F3000BFB9
:100960004BEC404044EC40B000BF6F485A460DF19C
:100970000F0105F031F800BF4BEC40B05FFA89F38E
:100980008DF80F30019300BF4BEC404044EC40B079
:1009900000BF65485A460DF10F0105F01DF800BF74
:1009A0004BEC40B0B14409F1FF394FEA29298DF8E9
:1009B0000F9000BF4BEC404044EC40B000BF5A48A1
:1009C0005A460DF10F0105F007F800BF4BEC40B09F
:1009D000019B711E0B448DF80F3000BF4BEC404063
:1009E00044EC40B000BF50485A460DF10F0104F0EE
:1009F000F3FF00BF4BEC40B02B238DF80F3000BF4E
:100A000044EC404044EC40B000BF47485A460DF12A
:100A10000F0104F0E1FF00BF4BEC40B04FEA182398
:100A20008DF80F3000BF4BEC404044EC40B000BFAD
:100A30003D485A460DF10F0104F0CEFF00BF4BECCC
:100A400040B05FFA88F98DF80F9000BF4BEC404042
:100A500044EC40B000BF34485A460DF10F0104F099
:100A6000BBFF00BF4BEC40B0D04408F1FF384FEA69
:100A700028288DF80F8000BF4BEC404044EC40B07C
:100A800000BF29485A460DF10F0104F0A5FF00BF31
:100A90004BEC40B00AF1FF3399448DF80F9000BF42
:100AA0004BEC404044EC40B000BF1F485A460DF1AB
:100AB0000F0104F091FF00BF4BEC40B02C238DF8E8
:100AC0000F3000BF44EC404044EC40B000BF16483B
:100AD0005A460DF10F0104F07FFF00BF4BEC40B010
:100AE0004BEC404044EC40B00AFB06F6009B4FEA5A
:100AF000132B8DF80F308DF80EB07EB10A4D012208
:100B00000DF10E01284604F067FF0134012228464A
:100B10000DF10F0104F060FFA642F0D1012343EC78
:100B2000403005B0BDE8F08F000008402A23F0B542
:100B300083B08DF80730030A8DF801308DF802007C
:100B400000BF002646EC4060012446EC404000BF58
:100B5000684822460DF1070104F03EFF00BF44EC57
:100B600040408DF8076000BF44EC406046EC4040D8
:100B700000BF604822460DF1070104F02DFF00BFC1
:100B800044EC40408DF8066000BF44EC406046EC09
:100B9000404000BF574822460DF1060104F01CFFFB
:100BA00000BF44EC40408DF8054000BF44EC40607D
:100BB00046EC404000BF4F4822460DF1050104F0CD
:100BC0000BFF00BF44EC40403F238DF8053000BFD1
:100BD00044EC406046EC404000BF464822460DF1E0
:100BE000050104F0F9FE00BF44EC40402B238DF8D2
:100BF000053000BF46EC406046EC404000BF3D4839
:100C000022460DF1050104F0E7FE00BF44EC404030
:100C10008DF8056000BF44EC406046EC404000BFEA
:100C2000344822460DF1050104F0D6FE00BF44EC25
:100C3000404023238DF8043000BF44EC406046EC74
:100C4000404000BF2B48224601A904F0C5FE00BF6A
:100C500044EC40408DF8046000BF44EC406046EC3A
:100C6000404000BF2348224601A904F0B5FE00BF62
:100C700044EC4040CC238DF8033000BF44EC40608E
:100C800046EC404000BF1B4822460DF1030104F032
:100C9000A3FE00BF44EC40402C238DF8033000BF7E
:100CA00046EC406046EC404000BF124822460DF141
:100CB000030104F091FE00BF44EC404044EC40606E
:100CC00046EC404000BF4DF280440A4D01222846C8
:100CD0000DEB020104F080FE012228460DF1020115
:100CE00004F07AFE013CF1D100BF012343EC403017
:100CF00003B0F0BD000008402DE9F04184B0BDF81C
:100D000028400094FFF708FE2A238DF80F3000BF1B
:100D1000002646EC4060012446EC404000BFDFF86E
:100D20005081224640460DF10F0104F055FE00BFF0
:100D300044EC40408DF80F6000BF44EC406046EC4E
:100D4000404000BF224640460DF10F0104F044FE32
:100D500000BF44EC40408DF80E6000BF44EC4060A2
:100D600046EC404000BF224640460DF10E0104F023
:100D700033FE00BF44EC40408DF80D4000BF44EC12
:100D8000406046EC404000BF224640460DF10D0158
:100D900004F022FE00BF44EC40403F238DF80D30AC
:100DA00000BF44EC406046EC404000BF2246404655
:100DB0000DF10D0104F010FE00BF44EC40402B2368
:100DC0008DF80D3000BF46EC406046EC404000BF5F
:100DD000224640460DF10D0104F0FEFD00BF44EC3B
:100DE00040408DF80D6000BF44EC406046EC404050
:100DF00000BF224640460DF10D0104F0EDFD00BF9D
:100E000044EC40408DF80C6000BF44EC406046EC80
:100E1000404000BF2246404603A904F0DDFD00BF6C
:100E200044EC40408DF80B6000BF44EC406046EC61
:100E3000404000BF224640460DF10B0104F0CCFDBE
:100E400000BF44EC4040CC238DF80A3000BF44EC96
:100E5000406046EC404000BF224640460DF10A018A
:100E600004F0BAFD00BF44EC404004B0BDE8F0819E
:100E7000000008402DE9F04F203A87B05E2ACDE906
:100E80000112BDF84060119C02D907B0BDE8F08F97
:100E90001D462A2383468DF8173000BF4FF0000906
:100EA00049EC40904FF0010A49EC40A000BF934844
:100EB00052460DF1170104F08FFD00BF4AEC40A02F
:100EC0004FEA1B238DF8173000BF4AEC409049ECE5
:100ED00040A000BF894852460DF1170104F07CFD87
:100EE00000BF4AEC40A05FFA8BF38DF817300393F4
:100EF00000BF4AEC409049EC40A000BF7F485246FA
:100F00000DF1170104F068FD00BF4AEC40A00BEBA7
:100F1000C401013909128DF8171000BF4AEC409046
:100F200049EC40A000BF754852460DF1170104F08E
:100F300053FD00BF4AEC40A0039B5FFA84FB03EB28
:100F4000CB03013B8DF8173000BF4AEC409049ECD1
:100F500040A000BF694852460DF1170104F03CFD66
:100F600000BF4AEC40A02B238DF8173000BF49EC9E
:100F7000409049EC40A000BF604852460DF1170177
:100F800004F02AFD00BF4AEC40A0019B1B0A8DF82B
:100F9000173000BF4AEC409049EC40A000BF5748D2
:100FA00052460DF1170104F017FD00BF4AEC40A0B6
:100FB0009DF804308DF81730039300BF4AEC409041
:100FC00049EC40A000BF4D4852460DF1170104F016
:100FD00003FD00BF4AEC40A0019B04EB440103EB7E
:100FE0008101013909128DF8171000BF4AEC4090B9
:100FF00049EC40A000BF414852460DF1170104F0F2
:10100000EBFC00BF4AEC40A0039B0BEB4B0B013BFE
:1010100003EB8B038DF8173000BF4AEC409049EC8E
:1010200040A000BF354852460DF1170104F0D4FC32
:1010300000BF4AEC40A02C238DF8173000BF49ECCC
:10104000409049EC40A000BF2C4852460DF11701DA
:1010500004F0C2FC00BF4AEC40A04AEC409049ECCE
:1010600040A04C4543DD4FF08009029A244B02EB2F
:101070004201DFF8888003F10C0202EB810203EBEE
:1010800081030027394613F801AB0392029300272E
:10109000019149FA07F313EA0A0F0CBF32462A46B8
:1010A0004FF0000B8DF81720120A8DF81620012240
:1010B0000DF11601404604F08FFC012240460DF16F
:1010C000170104F089FC5A460BF1010B5C45EED187
:1010D0000137082FDDD113460199994201F1010230
:1010E00001D01146D3E7DDE902329342C9D1012391
:1010F00043EC403007B0BDE8F08F00BF000008406F
:101100008C5B00102DE9F0471446127882B0BDF8D0
:1011100028A0DDF82C807AB105460E461F464FEA1E
:10112000C8094FEA480CE144A2F120035E2B06D91E
:1011300014F8012F002AF7D102B0BDE8F087284645
:101140003B463146CDE900A8FFF794FE14F8012F85
:101150004D44ADB2002AE7D102B0BDE8F08700BF30
:1011600010B44FF480740C4B53F8202003EB800331
:10117000C00082F0400200F1804003F5805C02F084
:10118000C00200F5203003F54053CCF80020416048
:101190001C605DF8044B70470480034010B4084C99
:1011A000C90041EA820154F8202004EB8003514039
:1011B00003F5805301F00C015DF8044B1960704792
:1011C00004800340064B53F8202003EB800382EA9F
:1011D000011202F0300203F580531A60704700BF1D
:1011E0000480034030B44FF0000343EC440043EC70
:1011F000400005254FF480740B4BC20053F82010BB
:1012000003EB800081F0400102F1804303F52033BD
:1012100001F0C00200F5805100F540500A605D60A9
:10122000046030BC704700BF048003400FB400B5B9
:1012300083B0049C074801F02FFD3CB105A920466E
:10124000019101F0C9FB044801F026FD012001F0E5
:10125000DBFB00BF685A0010485B001070B5864683
:10126000EFF3108572B6124CD4E8CF6F0120002E38
:10127000FAD1C4E8460F002EF6D1BFF35F8F4FF0CE
:10128000010CC80801F007030CFA03F31EF800C0B4
:101290001CEA030608D14CEA030C0EF800C0C4E8AF
:1012A0008F6F85F3108870BD1046FFF7BFFF00BF3A
:1012B0006B0B0020F8B5EFF3108572B6234CD4E821
:1012C000CF7F0126002FFAD1C4E8476F002FF6D157
:1012D000BFF35F8F9A4227D80126D70810F807E09E
:1012E00002F0070C06FA0CFC1EEA0C0F00EBD2070A
:1012F0000DD125E04FEAD20E10F80EE002F0070CF7
:1013000006FA0CFC1EEA0C0F00EBD20718D00132D3
:101310009342EFD24FF0FF300023C4E88F3F85F3B4
:101320001088984207DBF8BD0023C4E88F3F85F39F
:1013300010884FF0FF300029F5D00698FFF776FFB0
:101340004EEA0C0E104687F800E0E5E76B0B002034
:10135000044A1078431CDBB2182B28BF10231370EB
:10136000704700BF6807002010B5054C82B00146E9
:101370001F23182200940348FFF79CFF02B010BD02
:10138000785A0010D00C00204FF0E022936843F010
:1013900000539360704700BF0021044B03F120020B
:1013A000C3E88F1F01339342FAD17047600B0020CE
:1013B0004FF0E0234FF08032C3F80024C3F8042438
:1013C000C3F80824C3F80C24C3F81024C3F8142469
:1013D000C3F81824C3F81C24C3F82024C3F8242419
:1013E000C3F82824C3F82C24C3F8302462B670470D
:1013F000012300F01F029340400941B1800000F139
:10140000604000F56140C0F8803103607047024AD7
:10141000203042F82030704700E100E00123064A06
:10142000410952F8212000F01F008340134214BFED
:1014300001200020704700BF00E100E001224309C5
:10144000034900F01F008240403341F823207047D9
:1014500000E100E0054A10309268054B52F8200088
:10146000C01A47288CBF00200120704700ED00E023
:101470006C07002010B5EFF3108C72B6114BD3E857
:10148000CF4F0122002CFAD1C3E8442F002CF6D113
:10149000BFF35F8F0C4A103092680C4C52F820203A
:1014A000A24201D091420BD1074A926842F8201023
:1014B000BFF35F8F0022C3E88F2F8CF3108810BD1D
:1014C00000F086FF690B002000ED00E01101001024
:1014D0002DE9F04F0B4683B0EFF3108A72B6DFF8B8
:1014E000AC91D9E8CF4F0121002CFAD1C9E8441FB3
:1014F000002CF6D1BFF35F8F5D4991F90080B8F100
:10150000000FC0F2B2805B4C08EB480704EB870584
:10151000AE7910300E7058494FEA48068968009637
:1015200051F82010BF000E1B472E34D821F0010EB9
:101530009EF80760964209D871E00CEB4C0604EB6C
:10154000860696F807B093454ED9B6469EF906C072
:10155000BCF1000FF1DA4BF601560EF1040B043D1D
:10156000A5EB0B05C5F34A056FEAC545009F6FEA79
:10157000D5454744BB468EF80680DFF80C8104EB66
:101580008707AEF8045044F82B80BE8087F806C069
:10159000FA71BB601AE0394EB14266D1AB60384B8C
:1015A000EA71BA1C2244043B9B1AC3F34A036FEA54
:1015B000C3434FF421426FEAD343E2536B80FF22CF
:1015C0004BF60153AA71AB8045F001012A4B9B6891
:1015D00043F82010BFF35F8F0023C9E88F3F8AF3E1
:1015E000108803B0BDE8F08FF3463BF8046F760532
:1015F0000FD4761502360BEB460601966FF0070600
:10160000F61B019F361B3E44C6F34A0646F460466D
:10161000A5E706F5FF1606F5FF561F36E9E7AB60AE
:101620006FF00703EA714FF42142DB1B1B1B73446D
:10163000E253C3F34A02124B124E02372744043BD3
:101640003243DB1BAA80C3F34A030F4A33436B8048
:101650004AF6AA2173461B1B5B415943090DA97128
:10166000CEF8002045F00101B0E700F0B1FE00BF68
:10167000141000206C07002000ED00E011010010A4
:10168000B407002000E0FFFF01488047690B0020FD
:10169000F0B5EFF30585EDB2EFF3108C72B62C497F
:1016A000D1E8CF2F0123002AFAD1C1E8423F002A16
:1016B000F6D1BFF35F8F274E40F0010EB4684AF6B3
:1016C000AA2354F82570244A0446A41A64416343AB
:1016D0001B0D77455BB223D092F906409C4224D083
:1016E00092F912409C422BD092F91E409C4229D084
:1016F00092F92A409C4227D092F936409C4225D04C
:1017000092F942409C4208BF05240FD0134A00249E
:10171000157813708571C1E88F4F8CF31088F0BD78
:10172000B2680F4C42F82540F0E7002404EB440473
:1017300002EB8402FF2494714BF601549480E5E798
:101740000124F3E70224F1E70324EFE70424EDE7A3
:10175000690B002000ED00E06C0700201410002051
:101760001101001010B5074C82B00146052300227C
:1017700000940548FFF79EFD0028A8BFC0F1330084
:1017800002B010BD945A001019100020014B0B44F8
:1017900003607047600B002070B5104C104DAC42D8
:1017A0000ED2FF26236863B1FFF7D2FD0146204623
:1017B000FFF7ECFFA680BFF35F8F0834AC42F1D394
:1017C00070BDFFF7C5FD01462046FFF7DFFF26711C
:1017D000BFF35F8F0834AC42E4D370BD2C08002007
:1017E0003408002010B50446FFF7B2FD014620463C
:1017F000FFF7CCFFFF232371BFF35F8F10BD00BF46
:1018000010B504460120FFF7AFFD034B03442360EE
:10181000BFF35F8F10BD00BF600B0020024B0B4475
:101820000360BFF35F8F7047600B002010490B68A7
:10183000EFF3108072B6D3E8CFCF0122BCF1000FD6
:10184000F9D1C3E84C2FBCF1000FF4D1BFF35F8F87
:10185000084A4FF0000C137809680133DBB21370AB
:10186000C1E88FCF80F3108840BF0020002170476F
:10187000F40F0020161000202DE9F04F2DED028B03
:1018800085B0EFF30583DBB2103B9A0818BF012245
:101890004FF0010103F0030018BFAF4DAF4B08BF7D
:1018A000AF4D00EB820253F8226001FA00FB05F510
:1018B00041539FEDA78B0190C3F804B02EE0B3888D
:1018C000180440F19280B379002B40F0DC80B6F927
:1018D00008100029C0F21D81736901EB410103EB7F
:1018E000C103D3E90247B7F1FF3F08BFB4F1FF3F9F
:1018F0000DD0019B05EB8301AB6A0A69D21AE31A8A
:10190000934203D32B6A13EA0B0F00D10C612846D4
:1019100000F0BEFBA042B941C0F2FB80B6F908302E
:10192000C5F83CB0002B0093C9DBD6F8149003EB4C
:10193000430A284609EBCA07D7E9024800F0A8FB8A
:10194000A04271EB0801BADBB8F1000FC0F2C3800E
:10195000D7E90431834A934200F0ED807A88B6F9E2
:10196000080092B242EA0040984702460B4652EA0B
:10197000030100F0B080002B80F2D180B4EB020EA6
:1019800068EB030839F93A30C7E902E8002B96DB27
:10199000716903EB430201EBC202D2E90270BE455A
:1019A00078EB000C4FEA430289DBB4462CF8083F81
:1019B0000BE031F93230A446002B0DDB03EB430082
:1019C00001EBC0005A00D0E90270BE451A4478EB22
:1019D000000001EBC204ECDA29F83A30009BACF8C5
:1019E0000030B38818043FF56EAF3369EFF310820F
:1019F00072B6D3E8CF0F01210028FAD1C3E8401F07
:101A00000028F6D1BFF35F8F4FF6FF74B088002334
:101A1000316900B2B480C1E88F3F82F310889842E8
:101A2000FFF651AF0746A946746906F1080807EBAF
:101A3000470E04EBCE03D3E90250B6F90830C44692
:101A4000002B13DBB246009704E034F9363094469D
:101A5000002B09DB03EB430604EBC602D2E902715B
:101A6000BD4270EB0101F0DA5646009FACF8007001
:101A700034F93E7024F83E30002FD8DAB3794D4661
:101A8000002B3FF424AF0023B371B6F9083006F100
:101A90000808591C3DD01946776903E080465A1C56
:101AA0003FF417AF03EB430207EBC200B0F802C0EC
:101AB0001C461CF4004F9E4637F93230EED08C4263
:101AC00080ED028B05D0A8F80030318927F832105C
:101AD00034817146E3E739F83A3033813369EFF303
:101AE000108272B6D3E8CF0F01210028FAD1C3E8E3
:101AF000401F0028F6D1BFF35F8F7388316929F842
:101B00003A30009B73800023C1E88F3F82F3108836
:101B1000D5E640BF05B0BDEC028BBDE8F08F28468E
:101B2000CDE9022300F0B4FA029A039B10EB020EF7
:101B300043EB010826E708460B6902919847002805
:101B4000C9D00299D1E9002311E700BFAFF30080AB
:101B5000FFFFFFFFFFFFFFFF00800B40C40F0020CF
:101B600000000B40791800102DE9F84F364C25691C
:101B70002DB1BDE8F84F0A213448FFF707BEDFF862
:101B8000E4800321404600F071FA0326C4F80C807B
:101B9000FFF7DEFB4FF0504C2D4B267003442361C2
:101BA000DCF800300F216370636961801D834FF0A2
:101BB0000405A3F878504FF00505A3F890504FF0B6
:101BC0000605A3F8A8504FF007050E214FF6FF7247
:101BD00008274FF00A0EA3F8C0504FF001094FF04C
:101BE0000C0C4FF0020B4FF0090A0D204FF00B05C3
:101BF000A3F868111749A280A3F808E1A160A3F82F
:101C000048B0A3F8F0A0A3F82051A3F838C1A3F876
:101C10005001A3F83090A3F86060A3F8D8701A8040
:101C20000D4B3046C8F820700C49DC60FFF722FCF1
:101C300049463046FFF7DCFB094B0A211F64034885
:101C4000BDE8F84FFFF7A2BDD8070020F40F002031
:101C5000600B0020FFFF1000C40F00207918001057
:101C600000200B4000000B4000487047D8070020C0
:101C7000F8B59DF82070044616461D4637B900F0A9
:101C80000FFA864265EB010100295CDB2369EFF363
:101C9000108772B6D3E8CF1F01220029FAD1C3E81A
:101CA000412F0029F6D1BFF35F8FB4F902C06369F9
:101CB0000CEB4C01BCF1000F4FEAC10203EBC10178
:101CC00038DB985A4FF0000E60802069C0E88FEF33
:101CD00087F310880698C1E9026508610798486192
:101CE00048880130C0F30E00012838BF0120488029
:101CF00040EA0C402169EFF3108572B6D1E8CF7F3E
:101D00000126002FFAD1C1E8476F002FF6D1BFF3AB
:101D10005F8FA1889952A4F804C02369C3E88FEFAC
:101D200085F310880122E368217803F501538A4086
:101D30005A60F8BD00232269C2E88F3F87F31088FC
:101D40004FF0FF30F8BD3846F8BD00BF0146F0B592
:101D50000069EFF3108772B6D0E8CF5F0124002D41
:101D6000FAD1C0E8454F002DF6D1BFF35F8FB1F92E
:101D700002E04C690EEB4E0CBEF1000F4FEACC05B1
:101D800004EBCC0C3DDB605B002648800869C0E8B2
:101D90008F6F87F31088BCF80200CCE90223013072
:101DA000C0F30E00012838BF0120059BACF80200EB
:101DB000CCF81030069B40EA0E40CCF814300B698A
:101DC000EFF3108272B6D3E8CFCF0127BCF1000F3A
:101DD000F9D1C3E84C7FBCF1000FF4D1BFF35F8FA2
:101DE0008B886353A1F804E00B69C3E88F6F82F31B
:101DF00010880122CB68097803F501538A405A60A4
:101E0000F0BD00230A69C2E88F3F87F310884FF0C6
:101E1000FF30F0BD03464089B0EB214F37DD5869F4
:101E20000A1402EB420210B500EBC2001C69EFF38A
:101E3000108C72B6D4E8CFEF0122BEF1000FF9D1B9
:101E4000C4E84E2FBEF1000FF4D1BFF35F8F42887C
:101E500089B292B28A4207D000221B69C3E88F2F51
:101E60008CF31088002010BD42F400424280012112
:101E7000002218699971C0E88F2F8CF310881C78A4
:101E8000DA68084602F50153A140596010BD0020F0
:101E9000704700BF407870472DE9F043871F41F13C
:101EA000FF35B84271EB050338BF002783B038BF58
:101EB0003D4604460E4600F0F3F8381A65EB010380
:101EC000012873F1000306DA2046314603B0BDE86D
:101ED000F04300F0EFB800F0E3F8874265EB010152
:101EE00000290ADB00211C4B3A4600931B482B4675
:101EF0000191FFF72BFF0028E6DB4FF0000EDFF823
:101F000068C01749174ADCF824309D4205D8DCF830
:101F10002800B842D8D29D42D6D10B68EFF3108882
:101F200072B6D3E8CF9F0120B9F1000FF9D1C3E811
:101F3000490FB9F1000FF4D1BFF35F8F10780B6830
:101F4000C0B2C3E88FEF88F310881378834200D1C2
:101F500020BF20BFD7E700BF2D180010D8070020F2
:101F6000F40F00201610002000000B4010B50446AE
:101F700000F096F84FF47A734FF0FF3C6FF0004298
:101F8000E4FB0301BDE81040844572EB01033CBF54
:101F900060461146FFF780BF2DE9F04705460C4625
:101FA00082B0EFF30587FFB2002F38D12B4ED6E970
:101FB00000238B4208BF824239D0DFF8AC80D8F8CA
:101FC0000CA098F80090504600F062F809F104095E
:101FD0005AF829301B1A281A64EB0101984271F152
:101FE000000124DA00F05CF8854264EB010100296D
:101FF00015DB1B4B404600932A4623460197FFF70B
:10200000A5FE011E0BDD174BC6E900545A6AA24219
:1020100021D39B6AAB421CD31348FFF7FBFE114B45
:10202000586AA04208D2002002B0BDE8F08720BF65
:102030000C4B586AA042F6D39B6AAB4203D30120F3
:1020400002B0BDE8F087001B18BF012002B0BDE858
:10205000F087A242E0D120BFDEE700BFD00700201A
:102060002D18001000000B40D807002010B4054BBD
:10207000054C064AA04214BF1846581C5DF8044B94
:10208000FFF7ECB8D40C002000800B40B05A0010D1
:102090000346416A0A46986A596A8A42FAD17047E9
:1020A000034B596A0A46986A596A9142FAD17047B5
:1020B00000000B40074A536A9942FCD8994207D165
:1020C000044B02E05A6A914202D19A6A8242F9D3E1
:1020D000704700BF00000B4000EB400C4FEA8C0C37
:1020E0000CF1804C0CF5803CF0B51646DCF8042071
:1020F000051FB2F5803F38BF4FF48032EDB238BFD4
:10210000CCF80420012D2AD94FF40067254C0CF59A
:102110004052176054F82020B2B9DCF80020012D9D
:1021200082EA461202F0E0020CF5805632602AD9AB
:102130004FF4006144F820304FF480330CF5005226
:102140001160CCF80430F0BD6769B7FBF2FE0EF108
:10215000010E0EEB4E0EBEF1030EFCD2DDE701299F
:10216000D2D103240CF540521460DCF80820D207C9
:10217000FBD5DCF800200B4C82EA461202F0E002AC
:102180000CF5805632600122DCF800504D4005F01D
:102190000305356002FA01F1DCF808200A42FBD0A1
:1021A000C6E700BFD80C0020014B53F82000704751
:1021B000D80C002070B4039D04682D0345EA034544
:1021C0001B4B002CB3FBF1F3B2FBF3F61FDB194AF8
:1021D000194B904214BF4FF480424FF40042174C09
:1021E0001A6003F580531A60A36832EA0303FBD137
:1021F000212200F540530433016086601A600268B2
:10220000002AFCDA0822C5601A6070BC70470368B7
:1022100003F03F038B42DAD18368C3F30B03B3426D
:10222000D5D1C36803F4EE23AB42D0D1EDE700BFB4
:10223000001BB70000800540002002400000024063
:1022400030B44FF080441C4B1C60E0B11B4CA3F534
:102250004053DC611A4C40F0010044401C6259625A
:1022600098624FF080454FF0E061134B1548164CD3
:102270001D60846019604AB930BC4FF00042A3F57C
:1022800080531A607047114BD861EAE74FF47A73B4
:1022900003FB02F2B2F1807F2ABF6FF07F43134647
:1022A0001A464FF080410A4C08482360094B4260AF
:1022B00030BC1960704700BF00B00D40D3C007B0FC
:1022C0002D3FF84F00A00140F3FFFF0100800D40BB
:1022D000B80F002000A00D40012300EB400080005B
:1022E00000F1804000F5841041600360704700BF3A
:1022F000002370B5DB8A04460D461646002242E8EC
:1023000000F2520254BF1021042144F25220984797
:10231000864633462A462046F446BDE870400A21E8
:10232000604700BF0023DB8A002242E800F252022D
:1023300001D4102118470421184700BF08B51346DF
:10234000021E02DB5BB141F030018B0603D5002396
:10235000DB7C022B06D04FF48170FFF7C9FF41F000
:102360002001F2E74FF49170FFF7C2FF034AD2F861
:102370002838002BFBD0BFF35F8F704700000E4062
:102380000021044B044ABFF35F8F43F8041B9342C0
:10239000F9D170470C080E402C080E4010B44FF4D1
:1023A0008D704FF42A64064A064B07491460D060CA
:1023B00019605368002BFCDA5DF8044B704700BFCE
:1023C0000080044000A0044000B0FA00704700BF45
:1023D00008B50148FEF72AFFD45A001038B5054C5D
:1023E000054DAC4204D254F8043B9847AC42FAD3B2
:1023F00038BD00BFF8590010385A001010B4074813
:10240000074C084B084A094904601A608B6832EA95
:102410000303FBD15DF8044B704700BF002002406E
:102420007F3BEFEF00300240F6FFF3030000024075
:10243000044BDB6CB3F5004F03D14FF48022024B09
:10244000DA64704700001150002011504FF0E02274
:10245000044BD2F8881D0B43C2F8883D10EE3004BF
:10246000704700BF030330006FF06041044B054A22
:1024700019609368DB4333F06043FAD1704700BFC3
:10248000003002400000024010B545F25320FFF733
:1024900049FFBDE8104003460420184710B545F237
:1024A0005320FFF73FFFBDE81040034601201847C7
:1024B000FEF772BF38B51349134C144D641AA408C3
:1024C000442C224628BF44222846920003F078FA82
:1024D000432C14D80E4AC4F144000ED005EB8403FB
:1024E000410803EBC101C3E9002208339942FAD144
:1024F000C30704D520F00100044445F82420054B0F
:102500009D6038BD00000010100100100000002088
:102510001101001000ED00E0002370B52B4C82B0DB
:10252000C4F88430FFF73AFF0122294BDA63636C69
:10253000012BFCD10321264A244B11639C6B012CF7
:10254000FCD10226052521460523224A2248009671
:10255000FFF730FE21462B46204A21480095FFF721
:1025600029FE0022042031461E4BFFF7B5FD21460F
:10257000284600221C4BFFF7AFFD00220820114621
:102580001A4BFFF7A9FD002209201146174BFFF750
:10259000A3FD002206201146134BFFF79DFD0022EC
:1025A000114B07201146FFF797FD0420FFF7FCFDB4
:1025B00000240F4BA3FB0035AD0CE0B229460134DB
:1025C000FFF78AFE062CF8D102B070BD0000014072
:1025D00000300140002F685900000540008C8647FC
:1025E00000800540001BB70080D1F008006CDC02C1
:1025F00083DE1B430000000000000000000000001C
:10260000DB60BE284A059193F4D5097F70374D7D74
:1026100066A5D83610E4104FAFF224024B1102EB3E
:10262000830201F01F034FF001049C40A4FB00341F
:10263000D568A5FB0456956805FB0466E5FB0356C3
:10264000556805FB03667047410201D150F0004018
:1026500050F480007047F0B5012363F3DF50C1F1FF
:1026600009014FF07E07FFF7D7FFB30F53F10003C7
:102670009C44B6EB8376B20028BF5242B2F1805F31
:102680000BD20231FFF7C8FF96EA260242F10002A0
:10269000B2F1805F01D2023FF3D50A4CA2FB0424C1
:1026A000B4FA84F29440240AA7EB020244EBC2502D
:1026B000C10DD1F17F01F60F00EBC673BDE8F0400C
:1026C00073E00000A2DA0FC911F1800FBCD030EA2C
:1026D000CC7248BF0CF1020C20F0004000EE100A52
:1026E0000DA2F2EC032A22EE802A11F1080FB9FEA6
:1026F000422AB0DDA2EE630AA2EE430A10EE103ABF
:10270000FDEEC21AC3F3C752782AA4D3D2F17F01D7
:1027100011EE902A944448E083F9223F7A7795B6E7
:102720000010C93F07B5C0F3C751FF2925D000F0FD
:1027300032F8BDE80640CEF800000ED2C9438CEA5C
:10274000D17C63EEA02AE1EE032A73EE622A12EE38
:10275000900A80EACC70106000BD8CEAD17C21EE3A
:10276000232AA3EE602A8CEAD37133EEC22A12EE3A
:10277000100A80EAC170106000BD4102BDE80E4041
:1027800001D150F0004050F4800010601860704794
:102790005FF0000C01E05FF0010CC0F3C751A1B382
:1027A000D1F17F0190D920EACC7323F0004000EEF4
:1027B000100AC0F38440203030FA01F1834A51F10D
:1027C0000001B2EC024A02EB810202EBC102D2EC40
:1027D000032A70EE620A20EEA01A5FEA5C0C61EE3A
:1027E000201A15D221EE041A61EEA41A70EEE10A45
:1027F00021EE232AA3EE602A8CEAD37133EEC22A9B
:1028000012EE100A80EAC170704700F00040C7E77E
:1028100061EEA41A70EEE10A21EE041A63EEA02A1A
:10282000E1EE032A73EE622A12EE900A80EACC707F
:10283000704700BFAFF30080C1FEFF3E25AA2A3ECD
:10284000000000000000803F0000000061C9FC3C67
:10285000CDE07F3F1CBFFC3C7605813DFE7D7F3F88
:102860009EEF803D090CBF3D0FE37E3F22C5BE3D7C
:10287000B624FF3D14047E3FE27BFE3D13071F3E5E
:1028800048EB7C3FA0631E3E6D30403E1D817B3F88
:1028900015103F3EA2AD603ECFDC793F3EE15E3E8B
:1028A0007B0D803EFA08783F96717D3E6E988F3E94
:1028B00065FF753F68B88D3EF4E19F3E939E733F80
:1028C000FD4B9D3EC654B03EAEF7703FB3DDAC3E0F
:1028D000C589BF3E604B6E3F0A1ABB3E26C4CF3E41
:1028E000CA356B3F631CCA3EF254E03E66D1673F77
:1028F0000739D93EDDF0EF3E4B66643F1641E73EB7
:10290000312B003F8894603F0FC3F53E07E4073F3B
:10291000A2C55C3F2B99013FC51F103F8F7D583FDB
:1029200065A1083F8AF6173FB534543FCA310F3FBF
:10293000E2FF1F3F599B4F3FD7C8153F4606283F30
:102940006BCF4A3FC4371C3F4130303FE0B9453F71
:10295000E49A223FA71D383FCA98403F20A6283F4F
:102960002FC73F3FAC763B3F4A562E3FDB13483FD5
:10297000CCB6353F6B52343F79C74F3F2F35303F90
:10298000D0B4393F52DD573F70412A3F912D3F3F30
:1029900026CE5F3F9F3E243FC35D443FF125683F05
:1029A00050C21D3F1C9D493FE13B703F4150173FC6
:1029B000BF7E4E3F7810783F71ED103FAF06533F1A
:1029C000D4F47F3FA75A0A3F9B64573F3828001032
:1029D00000B9704700F01EB910B5094B84B01C68EF
:1029E0004CB1034600914FF0FF3203A90548A047C0
:1029F000012004B010BD00F04FF9204604B010BD16
:102A0000B40F0020D129001000BEFDE7704700BFC1
:102A100008B5FFF7F9FF00BF38B5064C064DFFF7C4
:102A2000DDFCAC4204D254F8043B9847AC42FAD3E4
:102A300038BD00BF385A00103C5A001003680846E1
:102A400011461847437D2DE9F04781460F4616464B
:102A5000002B43D0002A3BDD037D00204D1E0146A4
:102A600015F8012FDFF884800A2A01F101040ED045
:102A7000A6421CD02B782146A3F10D03B3FA83F3B1
:102A800015F8012F5B090A2A01F10104F0D1002B8E
:102A9000EED18142A1EB000138441BDC022140460B
:102AA000D9F800309847A64208D02046E2E786428F
:102AB00004DD311AD9F8003038449847374417F804
:102AC000013CA3F10D03B3FA83F35B0989F81430D9
:102AD000BDE8F087D9F800309847DFE73846D9F8E5
:102AE00000301146BDE8F047184700BFA45E001053
:102AF0002DE9F04782B00D46924699460746FFF70A
:102B0000CFFA4FF0FF366FF000442F4A821841F1A0
:102B10000003964274EB03013CBF324623462B4828
:102B200002F052FF6B1C804603D1384602F016FFBC
:102B30000546274B274E1C68274BB9F1000F18BFDD
:102B40001E46B4B1BAF1000F1AD1DFF8909001E03F
:102B5000246974B12368002BFAD0D9F800300BB186
:102B60009C42F5D120462A463946B0472469002CBC
:102B7000F0D1B8F1000F1FD1284602B0BDE8F087B0
:102B80004FF00A0ADFF8549002E02469002CF0D0DC
:102B90002368002BF9D0D9F800300BB1A342F4D14F
:102BA0002A4639462046B047012220460DF107014A
:102BB0008DF807A0B047E8E7044802F015FF284663
:102BC00002B0BDE8F08700BF40420F002C08002093
:102BD000280D00203D2A0010452A00102C0D002051
:102BE0000A4A13684BB1834202D109E0984207D0E8
:102BF00003F110021B69002BF8D101B1106070477E
:102C00000029FCD10369136001617047280D002081
:102C100000F0FCB9F0B583B006468DF80700FFF769
:102C20003FFA4FF0FF356FF00044174A821841F128
:102C30000003954274EB03013CBF23462A46134828
:102C400002F0C2FE124B07461C689CB1114D01E018
:102C500024697CB12368002BFAD02B680BB19C420D
:102C6000F6D1204601220DF10701FFF7EBFE2469A2
:102C7000002CEFD117B9304603B0F0BD034802F085
:102C8000B3FE304603B0F0BD40420F002C080020D8
:102C9000280D00202C0D002038B5044602F05EFE01
:102CA000012305461A4620462946FFF721FF084B17
:102CB0001C682CB163682BB198472469002CF9D1AA
:102CC000284638BD2469002CF4D1284638BD00BF01
:102CD000280D0020024A034B10601960704700BFA6
:102CE000C80C0020CC0C0020184B70B51A68002AC4
:102CF00028D0EFF3108172B6D2E8CF4F0120002C1C
:102D0000FAD1C2E8440F002CF6D1BFF35F8F002246
:102D10000F4C186859602270C0E88F2F81F310881B
:102D2000002400250B4E3078FEF778FB20B90024F4
:102D300000252046294670BD3078FEF77FFB2046EF
:102D4000294670BD4FF47A740025EBE7BC0F0020D4
:102D50001810002017100020014B1878FEF76EBBEA
:102D60001710002038B5044600200D4601F0E8FE9B
:102D7000A8B3002001F0F8FE88B3FFF791F94FF0F7
:102D8000FF3E6FF0004C174A821841F10003964550
:102D90007CEB03013CBF72466346134802F014FE0D
:102DA000E8B1002001F0CCFE58B900214FF0FF300F
:102DB00001F088FA6FF002040B4802F015FE20467D
:102DC00038BD002001F0D0FE0028EED021462A4672
:102DD000002001F0E3FE04460028EDD1EAE76FF0A1
:102DE0000204ECE740420F00F80F002008B5FFF79F
:102DF00057F94FF0FF3E6FF0004C0F4A821841F137
:102E0000000396457CEB03013CBF724663460B48CA
:102E100002F0DAFD70B14FF0FF30002101F052FAFC
:102E2000002001F0CBFE0028F5D1BDE808400348A2
:102E300002F0DABD08BD00BF40420F00F80F0020CD
:102E40002DE9F84307460E46FFF72AF94FF0FF3504
:102E50006FF00044334A821841F10003954274EB4D
:102E600003013CBF2A4623462F4802F0ADFD08B9B6
:102E7000BDE8F883002001F063FE002848D0002E52
:102E800041DD0025DFF8A480DFF8A49013E022469E
:102E9000002001F08BFE002104464FF0FF3001F0CE
:102EA00011FA002001F08AFEFFF7FAF8C8E90001E4
:102EB0002544AE4227DD002001F088FE741B8442C9
:102EC000A8BF04467919002CE1D121464FF0FF300C
:102ED00001F0F8F9204601F071FE204601F030FEC5
:102EE00088B1204601F072FE0028E2D1FFF7D8F841
:102EF000D8F80030D8F8042013EB090342F100029F
:102F000083428A41D5D20848BDE8F84302F06CBD3F
:102F100000200021054BC3E90001BDE8F843024849
:102F200002F062BD40420F00F80F0020B8090020F7
:102F300020A1070030B5002185B02E4802F050FDD9
:102F4000F0B92D4B1A68CAB1EFF3108172B6D2E80E
:102F5000CF5F0124002DFAD1C2E8454F002DF6D1F4
:102F6000BFF35F8F254C1D6822785960D3B20122D0
:102F70002270C5E88F0F81F31088CBB105B030BD4A
:102F800000214FF0FF3001F09DF9002001F0ECFD31
:102F90000446184802F028FD002CEFD0184B1B689F
:102FA000002BEBD0174A106805B0BDE83040184739
:102FB000FEF75AFE0446FFF773F84FF0FF3C6FF040
:102FC000004510F57A7241F10003944575EB030159
:102FD00038BF2B464FF000014FF0010520460A4C48
:102FE00038BF6246CDE901150094FEF741FE05B0F9
:102FF00030BD00BFF80F0020BC0F002018100020CB
:10300000C80C0020CC0C0020E92C00104FF05043DD
:1030100030B585B01C68FEF727FEFEF73BFFA042E7
:1030200002D0002005B030BD00212A4B08461B7895
:1030300001F0A0FF28480368002B47D00120FEF7CD
:1030400091FB0346254C2649C0B22370FEF712FAC5
:1030500020780121FEF7CCF90E20FEF7FBF940BBEA
:10306000204B0125C3E90000FEF7FEFD0446FFF7F3
:1030700017F84FF0FF3E6FF0004C10F57A7241F1F7
:10308000000396457CEB03014FF000012046164CEF
:103090003CBF72466346CDE901150094FEF7E8FD9A
:1030A0000028BEDB01211148FFF79AFD012005B081
:1030B00030BD0120FEF758F901460A48FEF7AEFB85
:1030C00000220E200A49FEF703FAEBE7FEF78AFB1F
:1030D000B4E700BF6C600010F80F0020171000204C
:1030E000352F0010BC0F0020E92C0010F007002045
:1030F000592D001000487047205F001000487047AD
:10310000CC5E001038B5184B04461A780AB344B99F
:1031100040F209424FF44173144D6A8013482B80EA
:1031200038BD052C1AD8124B104D53F824102846E0
:103130000023013903E0132B20F8022F10D011F8DF
:10314000012F0133DBB2002AF5D15B0043F4407359
:10315000E4E71121184600F025F8D8E7002038BD33
:103160004FF44A73DAE700BF00100020000D002082
:10317000B45E001000B545F247308BB0FFF7D2F8CF
:1031800001220346092101A89847DDE903320449D9
:1031900012BA1BBAC1E900230BB05DF804FB00BFF3
:1031A000E40F0020012901F1FF3300F0B3805D49F5
:1031B0000A784FEA121C9F2A8CBF0CF1370C0CF1D5
:1031C000300C012B80F800C000F0A78002F00F0245
:1031D000092A8CBF37323032022B427000F09D80BA
:1031E0004A784FEA121C9F2A8CBF0CF1370C0CF165
:1031F000300C032B80F802C000F08F8002F00F0229
:10320000092A8CBF37323032042BC27000F085801F
:103210008A784FEA121C9F2A8CBF0CF1370C0CF1F4
:10322000300C052B80F804C077D002F00F02092A79
:103230008CBF37323032062B42716ED0CA784FEADB
:10324000121C9F2A8CBF0CF1370C0CF1300C072B91
:1032500080F806C061D002F00F02092A8CBF373215
:103260003032082BC27158D00A794FEA121C9F2ABB
:103270008CBF0CF1370C0CF1300C092B80F808C016
:103280004BD002F00F02092A8CBF373230320A2BA2
:10329000427242D04A794FEA121C9F2A8CBF0CF12D
:1032A000370C0CF1300C0B2B80F80AC035D002F033
:1032B0000F02092A8CBF373230320C2BC2722CD04D
:1032C0008A794FEA121C9F2A8CBF0CF1370C0CF143
:1032D000300C0D2B80F80CC01FD002F00F02092A11
:1032E0008CBF373230320E2B427316D0CA79110997
:1032F0009F2A8CBF373130310F2B81730DD002F0F4
:103300000F02092A94BF30323732102BC27318BF14
:10331000103002D00023037070471844002303705C
:10332000704700BFE40F0020704700BF0022014B30
:103330001A707047151000204B79FF2B0BD188793C
:1033400048B9CB79012B07D1082A05D9034B8A78D4
:1033500009201A7070470020704700BF1510002028
:1033600001207047012901D00120704708B5104B9A
:1033700091881B78994201D0002008BD5378012B19
:1033800008D0022BF8D1002164220846FEF758FF2E
:10339000012008BD518811F480721ABFC1F3C01218
:1033A000480A4FF0FF3001F00301FEF7C7FF00BFEE
:1033B0001510002000487047DC5F0010012907D17C
:1033C0005378012B02D19388072B03D0002070473C
:1033D000012070471146A623014A00F071BE00BFCC
:1033E000345F00100346012201481A70704700BF85
:1033F0000060001008B50B68B3F5966F00D008BDEB
:1034000000224FF0FF301146FEF798FF2DE9F04FF4
:103410009C4E8FB0D6F8984014F4003540F0C78029
:10342000E70638D4E6032AD50DF12C0B4FF001093D
:10343000954E06F1280AB77886F80190012F00F022
:1034400033811436B245F6D14FF4C0628F4BADF8DC
:103450002C2093E803000EAB03E90300012158463A
:1034600002F0B6FA4FF40032894B1A653DB1894B30
:103470001B7823B94FF40032854BC3F89020E10448
:1034800000F1C580620400F1B680230400F1A4803D
:103490000FB0BDE8F08FD6F85880B8F1000FC1D05A
:1034A00098FAA8F3B3FA83F3CDE90854DFF8E0B152
:1034B000012403EA040282EA040123FA04F7561EF7
:1034C000059106F0140607EB870106EBC1066E496D
:1034D0009C400E445908069163D06F48013900EBB7
:1034E000C707783800EBC101002A58D001F1040960
:1034F0000437644DA96D2142DAD06FEA040AD3B2D1
:103500000293059B9B000793EB6D029A1C4214BF2C
:1035100001230023CBF858404946009230463A46F2
:1035200008EA0A0800F0CCFB50B9AB6D1C42EBD1A5
:10353000B8F1000F2DD098FAA8F3B3FA83F3B7E7E8
:10354000069B0599079A03EB83030A44DB0003EB10
:1035500082034D4A30461A44528A0493039200F083
:10356000CDFA039A049B0D92474A0121D35C0BA824
:103570008DF830304FF4E063ADF82C3000238DF837
:10358000313002F025FAAB6D2342BDD1B8F1000F06
:10359000D1D1DDE90854E0037FF568AF44E78946FF
:1035A000A7E7002A00F09F8089463B4FA0E74FF431
:1035B0004072B36C0DF12C0BC3F30A030121584682
:1035C000ADF82C200C9302F003FAE20600F18E8095
:1035D000E3033FF52BAF4AE74FF4A06301210BA8AB
:1035E000ADF82C3002F0F4F94FF40062284B1A6564
:1035F0000FB0BDE8F08F4FF4806301210BA8ADF848
:103600002C3002F0E5F91022214B1A653DE7002528
:103610001E4B1C494FF416720D6020489D602946D0
:10362000DD601D615D619D61DD611D625D629D62A8
:10363000DD621D635D639D63DD631D645D649D6488
:10364000DD641D655D659D65DD651D665D669D6668
:10365000DD661D675D679D67DD6702F0ADF94FF4BC
:1036600080730F4A0F490BA811600121ADF82C306F
:103670008DF8305002F0ACF94FF40022044B1A657B
:1036800000E700BF00001150340D00200000105072
:103690000030115012100020800010505C0D0020EE
:1036A000300D0020800110503178144AC80980F094
:1036B000010301F00F0143EA41039F401766A2F5A1
:1036C0000052536E37EA0303FBD10D4B03EBC103EA
:1036D00000B90433002230461A6000F00FFA094B9B
:1036E0005F661F66ADE69146054F02E7D6F8588043
:1036F000B8F1000F7FF4D4AE6AE700BF002011508C
:10370000800010500030115038B500F0D1F90C2372
:10371000274D284CAB67FF220E202749FDF7D8FE26
:1037200028220021204602F047F980200021402273
:10373000224BA0822248C3F88410E280C3F8801094
:10374000628399604FF41672D96019615961996169
:10375000D961196259629962D9621963596399638F
:10376000D963196459649964D9641965596599656F
:10377000D965196659669966A060E061D96604F159
:103780002800196759679967D96702F015F94FF052
:10379000005401204FF480320A4B0B4919600B4949
:1037A0000B4B2864EC64C5F89010DA6438BD00BF98
:1037B00000001150340D00200D3400100000105096
:1037C00000011050300D00208001105010D0010079
:1037D0000020115001210E20FDF70ABE002300B584
:1037E00083B01946CDE90033034A044800F08CF950
:1037F00003B05DF804FB00BF80001050480D0020AE
:10380000064B4FF40032197019B1054BC3F89020E4
:103810007047044BC3F89020704700BF121000207F
:1038200000201150003011500B785B0602D14B780C
:10383000052B00D070474B88014ADBB213607047FC
:1038400000001150F8B54FF0000E91F802C0CD788D
:103850000CF00F038E8803EB83024FEADC1127483C
:10386000D20001EB810702EB8702254C00F802C071
:10387000C6F30A06024482F801E005F0030504EBF2
:10388000C304D6804FEA810C4FEA830E01B9043499
:10389000002222603BB91B4B8C4400EB8C0CCCF813
:1038A00008300120F8BD9E44AC06022D8C44164D14
:1038B0004FEACE0E06F13F020EEB8C0E22F03F02D5
:1038C00000EB0E0C286808BF52000244CCF8080038
:1038D00080F0A040DB0080F4801003F1A04320437F
:1038E00003F580132A6040F0204001B904330749F2
:1038F00018608A42D5D9FEF76BFD00BF340D002059
:103900008000105000011050300D0020FF0F1050AB
:10391000002108B5134B4FF4167299601248D96014
:10392000196159619961D961196259629962D962C3
:10393000196359639963D963196459649964D964A3
:10394000196559659965D965196659669966D96683
:10395000196759679967D96702F02EF8034B044A33
:103960001A6008BD000010505C0D0020300D0020D2
:1039700080011050282070B51D46134641F3C01237
:1039800001F00F0402F0140210FB0420104E82B06C
:103990003044C909A4B10F4A02EBC402E40004F1A7
:1039A000A04404F5801449B9211D04320024019576
:1039B000009400F0A9F8012002B070BD2146F5E79F
:1039C00011B92146034AF0E72146024AEEE700BF5B
:1039D000340D002080001050F8B541F3C01001F004
:1039E0000F061F4B00F0140006EB860200EBC2002E
:1039F000CD0911F00F01184403D11A4AC5F1020490
:103A00009466012401EB810105EB8502C90001EBFD
:103A10008201595C134ACF0987EA040301F00F01C0
:103A200043EA41039C401466A2F50052536E34EA07
:103A30000303FBD10C4B03EBC10307B90433002292
:103A40001A6000F05BF8094A074B546603EBC603A3
:103A5000146605B904334FF400621A60F8BD00BF64
:103A6000340D002000201150800010500030115003
:103A700011F00F0217D04FF0000CC90902EB8203BE
:103A800000B50948DB0001EB810E03EB8E031844FF
:103A9000064B80F801C003EBC20301B904330022D6
:103AA0001A605DF804FB7047340D00208000105050
:103AB0004FF080520B480C4908B50C4B02600A606D
:103AC0009968C94311F08051FAD14FF480520848E7
:103AD00001F072FF0922074B07485A67BDE808400A
:103AE000FDF78EBE00200240003002400000024080
:103AF0000000105000001150EC0F00200023C0E91E
:103B000003338370704700BF2DE9F04F04464FF038
:103B100001084FF0000E1846DFF89CC184F80280BF
:103B2000DCF8403085B0BDF83C5094F8008003F0DC
:103B3000020AF2450F46164614BF4FF00109F1463E
:103B4000A168A4F812E02582E0604FEAD81804D1F9
:103B500094F804B0BBF1000F75D1E0886378A842F7
:103B600028BF28462D1AADB22582002B68D140F41B
:103B7000806C83F00103C845637012D078B1E568AA
:103B800005EB000E2A4612780135D2B275450A704F
:103B900001F10101F6D1E368258A0344E3604CF4A6
:103BA000004C002D66D04CF48053002F35D0E088B7
:103BB00094F801C0A84228BF28462D1AADB23A6831
:103BC000A1682582BCF1000F5DD140F4806E8CF0BD
:103BD000010CC84584F801C017D0A0B101F140081C
:103BE000E16801EB00098C469CF800C001315FFAE6
:103BF0008CFC494588F800C008F10108F3D1E16860
:103C0000258A0144E1604EF4004E0DB94EF4804E19
:103C100042F0804243EA0E433A6032681A4012F0A2
:103C2000042F45D1244A23F004213160126C9207FD
:103C300002D40C22033AFDD2336005B0BDE8F08F08
:103C400040F4105C95E7E3785A4601EB831101F0EC
:103C5000B7FE628A258AE3685A44A5EB0B0592B247
:103C6000ADB25B44A4F803A062822582E3606DB12B
:103C7000A16872E74CF4A043002FCED03A6822F03E
:103C800080423A60C9E740F4105EA0E74FF4E06379
:103C9000207829468DF80800C4E90355A57001A8CD
:103CA00003928DF80950ADF8043001F091FEC4E79D
:103CB00031460248FDF7BAFA00001150685B001067
:103CC0002DE9F04F847883B09DF83090002C5DD0C2
:103CD000624CD4F840B011B10968C1F38071D0F8DA
:103CE00008800BB108F140080FFA83FA32F81A5035
:103CF00002EB430CAFB2C5F30905B9F1000F16D0C2
:103D0000C46895B1C646CDE900C86619A0469EF8BC
:103D100000C001345FFA8CFCB4420EF1010E88F849
:103D200000C0F3D1DDE900C8C4682C44C460448AF3
:103D300007F480472C444482C488A54222D2002440
:103D40000482E9B1B9F1000F1AD0CFB91BF0020F0C
:103D500001785DD0414C4249E56C294041F01001A9
:103D6000E164E16C11F01001FBD183F0010332F842
:103D700013301B0403D4437883F0010343701160B4
:103D8000012004E0002FFBD1038A1BB9002003B0FF
:103D9000BDE8F08F9C4228BF1C4641781B1B9BB29C
:103DA0000382002931D144F4806581F00101417022
:103DB000B9F1000F12D17CB1C3681F191E463678C5
:103DC0000133F6B2BB4288F8006008F10108F5D172
:103DD000C3682344C360038A45F400450BB945F426
:103DE000804532F81A302B405B0533D425F48063CC
:103DF0009BB21A4922F81A300B6C9F0702D40C238D
:103E0000033BFDD222F81A50C0E744F41055CCE72A
:103E1000012401F00F01134EA1408C400F4D346678
:103E2000696E34EA0101FBD183F0010132F81130EF
:103E30001E049DB209D40021437883F0010343702E
:103E40001160094B5C661C669AE700230571C1701E
:103E50001360F6E761460548FDF7E8F900001150E8
:103E6000008600200020115000301150685B0010C7
:103E70002DE9F041204E3278FF2A24D00024054657
:103E80002146DFF880801D4F0DE03B6813EB800377
:103E900010D0DB682846984732780134531CE1B2D1
:103EA000DBB299420FD2914204EBC400EDD301D1B1
:103EB0004346EFE74FF0E023D3F8F03DDB0700D5B2
:103EC00000BEBDE8F0810E4B6C220021184601F0C7
:103ED00073FD4FF0FF340346C3F81B40C3F81F4087
:103EE000C3F82340C3F827402022BDE8F041FF215A
:103EF0002B3001F061BD00BF11100020C00900206F
:103F00008C0B0020414C0010704700BF704700BF71
:103F10000020704700207047704700BF704700BF07
:103F2000704700BF704700BF024B187E003818BFB3
:103F3000012070478C0B0020024B987D003818BF81
:103F4000012070478C0B00202DE9F84FDFF8E88046
:103F500098F80030FF2B02D00120BDE8F88F0D4605
:103F600000294BD000246C2200210646284801F08D
:103F700023FD284F284B29481C70FDF741FC38468B
:103F8000FDF730FC264B27481F60FDF739FC264F14
:103F9000264801F0CFFA264A264B38461A60FFF72A
:103FA00021FA3A78DFF89490FF2AC9F8000025D06A
:103FB000A3462146DFF888A08A421CD9D9F80030F0
:103FC0001B191BD05B68CBB198473A780BF1010BFA
:103FD000531CDBB25FFA8BF18B4204F12404EBD863
:103FE0002946304688F80060FFF78EFB30B1304636
:103FF000FFF7F0FBB0E701D15346E5E74FF0E023D0
:10400000D3F8F03DDB0700D500BE0020A5E700BFD8
:104010008C0B0020840B002013100020C00C00200B
:10402000F80B002020080020111000200C080020B0
:1040300008080020FC0B002028080020C0090020F0
:10404000DD4B001010B51C4C82B0E38883B323789D
:10405000DB4303F08001C3F3C0131C4494F84B30DE
:10406000164A13F00103107809D04FF0E023D3F87B
:10407000F03DDA0700D500BE002002B010BD94F874
:104080004B20009342F0010284F84B201A46FFF7C0
:1040900071FC0028F1D14FF0E02294F84B3003F08E
:1040A000FA0384F84B30D2F8F03DDB07E4D5E2E7C1
:1040B00001238021D1E700BF8C0B002028080020BD
:1040C00030B5454C85B0E588A260AB4228BF2B4691
:1040D000A381002D39D0114618460BB1002A42D0D9
:1040E000E58994F90020431B9BB2402B28BF402355
:1040F000002A1BDBA8424FF0000069D00146374A76
:10410000044494F84B50364815F00105007823D14B
:10411000009594F84B5045F0010584F84B50FFF79B
:1041200029FC002843D0012005B030BDA8424BD067
:104130002A48814205D0B1B11A46039301F040FCF0
:10414000039B01208021254ADAE794F84C30244A69
:1041500013F00103107810D04FF0E023D3F8F03DB6
:10416000DA0700D500BE4FF0E023D3F8F03DD907C1
:1041700000D500BE002005B030BD94F84C101A46A2
:1041800041F00101009384F84C108021FFF7F2FB0D
:104190000028C8D14FF0E02294F84C3003F0FA0325
:1041A00084F84C30D2F8F03DDB07DCD5DAE74FF08D
:1041B000E02294F84B3003F0FA0384F84B30D2F845
:1041C000F03DD807CFD5CDE701208021002297E729
:1041D0000146024694E700BF8C0B0020200B002014
:1041E00028080020084B18788B88C3F30A0343B9CA
:1041F0004FF0E023D3F8F03DDB0700D500BE0020F0
:104200007047FFF71FBB00BF280800200B46064A77
:1042100006481168DA094B3203F00F0302EB43033F
:10422000184400F0D7BE00BFF80B00208C0B002014
:104230000B46064A06481168DA094B3203F00F03B1
:1042400002EB4303184400F0E5BE00BFF80B00206A
:104250008C0B002030B5194C01F00F0E04EB4E040E
:1042600004EBD11494F84BC0154883B01CF0010F37
:104270009DF81850007809D04FF0E023D3F8F03DB6
:10428000DA0700D500BE002003B030BD009594F8D9
:104290004BC04CF0010C84F84BC0FFF76BFB0028BF
:1042A000F2D14FF0E02294F84B3003F0FA0384F897
:1042B0004B30D2F8F03DDB07E5D5E3E78C0B00206F
:1042C000280800202DE9F04FDFF8E4B28DB09BF80C
:1042D0000030FF2B3ED010240026B04DB04FDFF849
:1042E000D4A20294D5F80080D8F81830EFF31082E9
:1042F00072B6D3E8CF0F01210028FAD1C3E8401FDE
:104300000028F6D1BFF35F8F4046C8F81C20002379
:1043100030F8042B09A901F047F9D8F81830C3E8A0
:104320008F6FD8F81C3083F3108898B19DF8253032
:10433000013B072B00F20981DFE803F0A39C948A7C
:1043400084330F040A9B0BB10B989847029B013BE7
:104350000293C7D10DB0BDE8F08F9DF8281001F091
:104360000F0807EB480303EBD11393F84B2002F03F
:10437000FA0283F84B20B8F1000F00F09480894ACC
:1043800093F82B3012789342C0F0838040F0FC8089
:10439000DFF824820B9B9DF829209DF82400C0475C
:1043A000D4E79AF80030002BD0D09AF80030013BC7
:1043B000DBB28AF800309AF8003003F0FF02002BDD
:1043C000C4D14FF0010CDFF8D8810CAB13E9030026
:1043D00088E8030098F8003088F814C003F0600003
:1043E000602888F84B20C8E902229DF82490C8F87C
:1043F000102088F84C2000F0E480402800F046822D
:1044000003F01F03012B00F0C981022B00F0EC80A8
:10441000002B40F0D680202800F04582002840F094
:10442000D08098F80130092B00F2CB80DFE813F040
:104430007D016D01C9005D01C90054012B01C90056
:104440001F010A013B7D002B80D0FFF76BFD7DE74C
:104450003B7D002B3FF47AAFF87DC0F34000FFF7BF
:104460005FFD73E7BB7EDA077FF570AF0A98FFF751
:104470004DFD6BE79DF82400FFF7FAFCFFF74EFDBA
:1044800064E79DF82400FFF7F3FC9DF828307B7665
:104490005CE7454A03EBC303126812EB830273D057
:1044A000D2F8188076E7B7F806E09DF824300B9A2A
:1044B000BEF1000F52D097F800906FEA090909F099
:1044C000800949454DD097F90010B868002975DB7F
:1044D00000283FF43BAFB7F80EC0B989A1EB0C013F
:1044E0008A4228BF0A46314988420AD0CDE90323CF
:1044F00001F066FADDE90323B7F80EC0B868B7F833
:1045000006E094441FFA8CFC8118F445A7F80EC00D
:10451000B96002D03F2A00F21481D7F81080B8F1B8
:10452000000F08D0184602211D4A0393C047039B81
:10453000002800F028811846002349461A460093B7
:10454000FFF788FE00287FF401AF4FF0E023D3F897
:10455000F03DDB077FF5FAAE00BEF7E64FF08009CD
:10456000AFE7002AF1D118460D490393FFF75CF934
:10457000D7F81080B8F1000F3FF4E8AE039B032199
:104580001846074AC047E1E64FF0E023D3F8F03D74
:10459000D9077FF5DFAE00BEDCE600BFFC0B0020D4
:1045A0008C0B002011100020C0090020200B0020DF
:1045B0002808002013100020554E0010B7F80EC038
:1045C0009FE74FF0E023D3F8F03DDB0702D500BEB4
:1045D0009DF8249048460021FFF7FEF980219DF8C0
:1045E0002400FFF7F9F9B1E698F80410BE4A01F08B
:1045F0000F0408EB440303EBD11392F800C093F8C7
:104600002B206300624503934FEAD11380F01F8192
:10461000DFF8E0C202EBC202DCF8004004EB8204E7
:10462000002800F01981002CD4D06369484601218C
:10463000AE4AC8F81030984700287FF487AE9DF83E
:104640002490C7E798F8022098F818309A4209D0C9
:10465000002B40F00C8288F81820002A40F0978147
:10466000FFF75CFC4846A149FFF7ECFC6EE698F8C2
:1046700018308DF82230484601239C490DF1220262
:10468000FFF71EFD62E6B8F80200030A013B020ACA
:10469000C0B20E2B9ED801A151F823F0DF4A0010C2
:1046A000CD4A0010BD4A0010D5450010D545001078
:1046B000A54A0010CD4A0010D5450010D545001080
:1046C000D5450010D5450010D5450010D545001042
:1046D000D545001077490010484698F80210FFF7BA
:1046E0007DF8012388F8153030E6B8F80230012B48
:1046F0007FF470AF98F81730484643F002037B49C7
:1047000088F81730FFF79EFC20E6B8F80230012B3E
:104710007FF460AF98F81730484623F002037349DE
:1047200088F81730FFF78EFC10E698F817304846E7
:10473000ADF822306D4902230DF12202FFF7C0FCD3
:1047400004E6BA8997F90000A2EB0C039BB2402B58
:1047500028BF402300286ADB94454FF0000900F091
:10476000B780634AB94499F84B109BF8000011F0E8
:10477000010141D04FF0E023D3F8F03DDC077FF595
:10478000E4AE00BEE1E6014618460393FFF724F9C4
:10479000039B80211846FFF71FF9D7E598F80430EE
:1047A0000F2B3FF617AF504A4344DB7E12789342FB
:1047B00075D2504A03EBC303126812EB83023FF435
:1047C00009AF536901214846484AC8F81030984754
:1047D00000287FF4BBAD98F8003013F060037FF43D
:1047E0002EAF98F80120C8F810300A2A3FF441AFE4
:1047F0000B2A3FF437AF22E7009199F84BC04146AE
:104800004CF0010C89F84BC0FFF7B4F800287FF496
:104810009DAD4FF0E02299F84B3003F0FA0389F890
:104820004B30D2F8F03DD8077FF58FAEA9E794451D
:1048300054D02F48814204D01A46039301F0C0F8A7
:10484000039B4FF001094FF08008294A8AE740F0A6
:104850008080002840D1284C98F8012002F0FD000B
:1048600001284FD0002A7FF4ACAE039A484690440A
:10487000434493F84B301D49C3F34003ADF8223055
:104880000DF122020223FFF71BFC5FE51B4B614683
:1048900048464246C8F81030FEF790FDCCE67FF45B
:1048A00099AE174B8EE798F804300F2B3FF692AE77
:1048B0000D4A4344DB7E127893420BD20D4A03EB40
:1048C000C303126812EB83023FF484AE5369ADE672
:1048D0004A4647E77FF47EAE094BA7E64FF0010951
:1048E0004FF0800800223DE7111000208C0B0020C3
:1048F000200B0020C009002024600010BD330010F0
:10490000B14D0010B8F8020080B9012A9BF80000F0
:10491000049323D0FFF760F8039A049B42441344A6
:1049200093F84B2042F0030283F84B20002C3FF415
:104930000DAD6369764AC8F81030012148469847A2
:104940000023C8F8103098F84C30DA073FF5FEAC79
:1049500088E600287FF43EAE04467DE7FFF788F83E
:10496000039A049B4244134493F84B2002F0FC0248
:1049700083F84B20DAE7FEF71DFD024600283FF4DE
:104980005EAE484653886249FFF79AFB54E6501ED4
:10499000C0B2FEF7B3FB002857D04278022A54D1A8
:1049A000C27998F81710921162F3000188F8171075
:1049B000428800F1090482180492CDF81490049AF8
:1049C000A24268D9237823449A4264D362780B2A9E
:1049D00066D0042A39D1049B21461A1B002392B2C7
:1049E000144603934B4B0693069B9DF80C901A7844
:1049F000531CDBB24B4528D94A4549D92422464BA2
:104A00001B6802FB093303B31B6922460598079113
:104A10009847039B082803F1010307990393E3D9FF
:104A20008442E1D310233D4ACDE900100C460390A7
:104A3000D118484600F008FB38B1039B1C44069B84
:104A40001B780133DBB24B45B9D84FF0E023D3F8E4
:104A5000F03DDC0700D500BE00224FF0E02388F8CF
:104A60001820D3F8F03DD8073FF5B1ADE7E50021B8
:104A700048460392FEF7C4FE4846FEF749FF98F801
:104A800019404846FFF7F4F9039A88F81940E2E51F
:104A9000DBD1234BB8E7DDF81490FFF73DFAE1E5F1
:104AA0001C468CE7FFF734FA024600283FF4C7ADF6
:104AB000484613781649FFF703FBBDE5B8F8041024
:104AC000FEF720FB02460028F2D1B8E5022A10D0FA
:104AD000FFF720FA024600287FF453AFAFE5FEF758
:104AE00009FB024658B1484612230949FFF7E8FA84
:104AF000A2E5FEF703FB024600287FF442AF4FF029
:104B0000E023D3F8F03DD9073FF561AD97E500BF4D
:104B10008C0B002011100020C0090020A70B0020E2
:104B20002460001000207047704700BF704700BF2E
:104B3000704700BF704700BF704700BF704700BF9D
:104B400008B10020704710B5FFF7EEF90446FFF7F3
:104B5000F3F92CB120B9034BD87800F0010010BD57
:104B6000002010BD440A002098B90B49B1F8483024
:104B7000B1F84A20B1F8440092B29BB29342B6BF5A
:104B8000C2EB40029B1A9B189BB2984228BF184662
:104B900070470020704700BF440A002008B1002081
:104BA0007047014800F036BC780A002008B10020A8
:104BB0007047014800F03CBB500A002008B10020BB
:104BC0007047014800F0D6BA500A002008B1002012
:104BD0007047014800F0A4BB500A002070B5154C86
:104BE00084B0DC220021204600F0E6FE40264FF68D
:104BF000087200234FF4E1310F4D04F13400CDE988
:104C00000165628104F19C026160194600921A46B6
:104C100000F058FA012304F15C02354400920021AF
:104C20001A460295019604F10C0000F04BFA04B00C
:104C300070BD00BF440A0020C40900200120704755
:104C400038B5064C00252046012140F8185B00F0DD
:104C50008DFC84F83650A57338BD00BF440A00208F
:104C60002DE9F84F4B79022B02D00020BDE8F88FD8
:104C70008B790C46022BF8D1DFF83091064699F873
:104C8000361099F80E0041B138B14FF0E023D3F857
:104C9000F03DDB07E9D500BEE7E7A17889F80060C1
:104CA00089F80110257804EB020A254455456978F6
:104CB00009D22B782B449A4505D3242903D11D46CC
:104CC00055456978F5D305295CD0042903D0281B04
:104CD00080B2BDE8F88F69790A29F8D195F800C04B
:104CE0002979AC4400293ED055453CD2E2453AD31F
:104CF000E34600279BF80130D846052BC5D19BF829
:104D0000033003F00303022BBFD159463046FFF7AF
:104D100069FA0028B9D09BF80220BBF80430D10909
:104D2000C3F30A0321D189F83620002263F30F026E
:104D30001B4863F31F4289F83460C9F8382000F03B
:104D4000F9FB184800F0FEFA00289ED09BF80030CE
:104D500001379B442B79FFB2BB42DC4603D9C245E5
:104D600001D9DA45C6D26546B1E7A9F8103040232B
:104D70000D4889F80E2089F80C60A9F8123000F06F
:104D8000D9FBE3E729463046FFF72CFA00283FF429
:104D90007CAFA97889F8021029780D44697894E7E6
:104DA000840A0020780A00205C0A0020440A0020BF
:104DB000137803F06003202B08D170B5224C938840
:104DC00094F801C09C4503D0002070BD00207047BE
:104DD0005378203B032BF7D8DFE803F0231F0B02A7
:104DE000012927D003291AD100205188FFF7A6FEF8
:104DF00015E001291ED0032911D15588134805F06B
:104E0000010686F00101E57000F0B0FB002031469C
:104E1000C5F34002FFF790FE01E001290ED001200A
:104E200070BD01290AD00329F9D100200849FEF7F5
:104E3000E1FAF4E71146FFF705F9F0E71146072319
:104E4000034AFFF73DF9EAE7440A00205C0A002024
:104E5000480A0020F0B5434D0C4695F836201E4612
:104E60008A42A87B95F802C085B00ED081425BD003
:104E7000614500D111BB4FF0E023D3F8F03DDB07D3
:104E800000D500BE002005B0F0BDE96B29B10023BC
:104E9000B2B205F1400000F0E9FBEB7AFF2B1DD127
:104EA000B5F84820B5F84A3092B29BB29A420BD17D
:104EB0002D4800F047FAAB7BA34235D0AB78A34234
:104EC0003FD0012005B0F0BD0020FFF72DFE2648A1
:104ED00000F038FAAB7BA342F0D125E069462348C5
:104EE00000F060FCBDF808307BB3039A013B1A4424
:104EF000002AD5D0002ED3D0BDF800E0DDF804C0E4
:104F00000EF1FF3E0023E97A039FE64405E0944555
:104F1000C6D0013A01339E42C2D0107888421CD0DC
:104F20009742F4D17246F5E70020FFF701FE1048E2
:104F300000F020F90028C1D131460D4800F0E2F818
:104F4000BCE70020FFF7F6FDBBE7BDF80030002B03
:104F5000A6D0019A013B1A44CAE70020FFF7E6FDFC
:104F60009EE700BF440A0020780A0020840A00203F
:104F7000500A002010B582B0B9B101280CD80B78C6
:104F800053B1134C012B235402D0012002B010BDA9
:104F9000FEF7DAFF0028F8D14FF0E023D3F8F03D18
:104FA000DB0700D500BE0020F0E70124084601A978
:104FB000ADF80440FEF7C8FF38B94FF0E023D3F84E
:104FC000F03DDA07E2D500BEE0E7014B1C70DDE7FB
:104FD000800B002070B5037813F0050F02D0002677
:104FE000304670BD0D4604464FF0FF31284600F0B4
:104FF000FFFC237803F00503002B0CBF01260026DD
:1050000003D1237843F004032370284600F0ECFC1E
:10501000304670BD70B50C4605464FF0FF31204656
:1050200000F0E6FC2B7803F00503042B0CBF0126EF
:10503000002603D12B7803F0FB032B70204600F0F1
:10504000D3FC304670BD00BF30B5039CBDF810C026
:10505000A444644511D2257804EB050EF4450CD325
:105060006578052D16D0042D09D0F445744604D971
:105070009EF80050AE44F445F2D2012030BDE578F0
:10508000002DF2D1A5789D4213D25055257804EB1E
:10509000050EEAE7A57805F00F0E01EB4E0EED09BF
:1050A0000EF80500257804EB050EF4457446E4D9A6
:1050B000DEE74FF0E023D3F8F03DDB0700D500BE7C
:1050C000002030BDF8B5069FBDF81C50C7B10DB922
:1050D0002846F8BD0446164641702A4639460C302B
:1050E00004F1200500F000FA2846FCF77BFB0EB126
:1050F0002E460025089B0120C4E90665A360F8BD83
:105100003846F8BD828AC38A92B29BB29A4201D0D5
:10511000002070470029FBD010B583880446013B6E
:105120000B4282B003D1817809B1437813B10020DA
:1051300002B010BD0078FFF769F80028F7D0637857
:105140004BB9A2682078A1786AB11A460093FFF79C
:1051500081F80028ECD14FF0E023D3F8F03DDB07D5
:10516000E5D500BEE3E71346009204F10C02FFF719
:10517000D9FCEEE7838AC28A9BB292B2018A93423B
:10518000B6BFC2EB41029B1A9B189BB2994228BF43
:10519000194630B5044683B019B1817809B1457814
:1051A00015B1002003B030BD0078FFF72FF80028BC
:1051B000F7D0A168A1B12B46E28804F10C0000F001
:1051C000F3F905466378E5B113BBA2682078A178AE
:1051D00032B300932B46FFF73DF8C8B12846E1E70C
:1051E000A38AE28A208A9BB292B29342B6BFC2EBF4
:1051F00040029B1A9B189BB2984228BF184605464E
:10520000E0E7002BCDD1A1782078FFF711F8C8E7AF
:105210004FF0E023D3F8F03DDB07C2D500BEC0E776
:1052200000922B4604F10C02FFF77CFCD5E700BF8F
:10523000F0B5054683B010460AB903B0F0BD05F1DC
:105240000C06002392B2304600F010FAAB8AE98ACD
:105250009BB289B22A8A8B42B6BFC1EB42015B1A6C
:105260005B189BB2934228BF1346A9880446994213
:1052700001D9914212D9AB8AE98A9BB289B28B4299
:10528000B6BFC1EB42015B1A5B189BB29A4228BFC2
:105290001A461AB1A97809B16F7817B1204603B040
:1052A000F0BD2878FEF7B2FF0028F7D0A96811B347
:1052B0003B463046EA8800F077F903466F7893B1B1
:1052C00047B9AA682878A9782AB30097FEF7C2FFE1
:1052D0000028E3D14FF0E023D3F8F03DDB07DDD524
:1052E00000BE2046DBE7002FD8D1A9782878FEF74A
:1052F0009FFF2046D3E7AA8AE98A92B289B22B8A15
:105300008A42B6BFC1EB4301521A521892B293427D
:1053100028BF1346D2E700923246FFF703FCD7E7D7
:10532000838AC28A9BB2008A92B29342B6BFC2EB12
:1053300040029B1A9B189BB2984286BFC01A80B24B
:1053400000207047838AC18A028A9BB289B28B424D
:10535000B6BFC1EB42015B1A5B189BB29A4298BF81
:10536000002270B588BFD21A838888BF92B2934258
:10537000044682B003D8817809B1437813B1002084
:1053800002B070BD0078FEF741FF0028F7D0A28A76
:10539000E18A238A92B289B28A42B6BFC1EB430145
:1053A000521A521892B2934292BF00229B1A9AB29A
:1053B000A3886678934206D9002EE0D1A1782078A0
:1053C000FEF736FFDBE7E188A6B95B4202EA03009D
:1053D000884228BF0846A2680546A17820788AB18D
:1053E000002D08BF00222B460096FEF733FF08B1C0
:1053F0002846C5E74FF0E023D3F8F03DDB07BED5E4
:1054000000BEBCE700922B4604F10C02FFF78AFBBA
:10541000EDE700BFF0B5044600F10C05002392B2A1
:10542000284683B000F0C0F8A38AE18A228A9BB2A2
:1054300089B28B42B6BFC1EB42015B1A5B189BB2CB
:105440009A4294BF0022D21AA38888BF92B2934294
:10545000064603D8A17809B1637813B1304603B08A
:10546000F0BD2078FEF7D2FE0028F7D0A38AE18AAB
:10547000228A9BB289B28B42B6BFC1EB42015B1A52
:105480005B189BB29A4294BF0022D21AA38888BFAD
:1054900092B29342677806D9002FDFD1A1782078A5
:1054A000FEF7C6FEDAE7E18887B95B421340A268DF
:1054B0008B4228BF0B462078A1787AB1002B08BF19
:1054C00000220097FEF7C6FE0028C7D14FF0E02368
:1054D000D3F8F03DDB07C1D500BEBFE700922A46F6
:1054E000FFF720FBF0E700BFB2F5004F20D8F8B57A
:1054F0000446C06815460F461E4618B14FF0FF31EE
:1055000000F076FA206918B14FF0FF3100F070FA20
:105510000023E06863812760A580A671238108B11C
:1055200000F062FA206908B100F05EFA0120F8BDCF
:105530000020704710B50446C06818B14FF0FF3125
:1055400000F056FA206918B14FF0FF3100F050FA20
:105550000023E0686381238108B100F045FA2069E7
:1055600018B1BDE8104000F03FBA10BD38B58379DE
:105570008B4218D00446C0680D4618B14FF0FF3179
:1055800000F036FA206918B14FF0FF3100F030FA20
:10559000E068A57108B100F027FA206918B1BDE8EC
:1055A000384000F021BA38BD2DE9F84306460069BD
:1055B0008846914618B14FF0FF3100F019FA33894F
:1055C00074899BB2A4B2B588A342B6BFC4EB4507A9
:1055D0001F1BFF18BFB2002F3FD0BD4235D3B945C6
:1055E00028BFB946A5421FFA89F703D8641BA4B2A5
:1055F000A542FBD9A5EB040931681FFA89F94F458B
:1056000021441DD94A4640467D1B00F0D9F9621954
:10561000316808EB090092B200F0D2F97289B588BE
:1056200092B2D3199BB29A4219D96A009B1A9BB2C3
:105630003069738108B100F0D7F93846BDE8F883C6
:105640003A46404600F0BCF9E8E7AB422CBF5B1B92
:105650005B199CB22F467481C1E773899BB2B3EB8F
:10566000450F4FEA4502E3DBE0E700BF2DE9F84FC5
:105670001546002A48D00646C0688846994618B1A3
:105680004FF0FF3100F0B4F93789B2797489B188ED
:10569000BFB2A4B2002A3AD1A742B6BFC4EB4104BC
:1056A0003C1BE419A4B28C4252D20C1BA4B2A542FA
:1056B00028BF254607EB0509A5EB010A1FFA89F962
:1056C0001FFA8AFA8F423C4603D3641AA4B28C4272
:1056D000FBD2091B30681FFA81FBAB45204446D33F
:1056E00041462A4600F06CF9B288B9454FEA4203B8
:1056F00002D3B9EB420F03DBA9EB03031FFA83F9D3
:10570000F068A6F8089038BB2846BDE8F88F8D42AF
:1057100027D2A742B6BFC4EB41033B1BDB199BB2A8
:105720004A002B44A5EB010A93421FFA8AFA0ADBCE
:1057300004EB01091FFA89F9A9EB0507BFB2BC42C6
:1057400024D9BA1A97B205EB07091FFA89F9B9E704
:105750000025F0680028D7D000F046F92846BDE8BB
:10576000F88FB9F1000F0ED099B90D46F1E75A46FE
:105770004146544400F024F9306808EB0B01A2B212
:1057800000F01EF9B0E76D1AA844EDE7BA4299DCC3
:10579000D7E704EB010927460D464FF0000A1FFA30
:1057A00089F98FE7F8B505894489ADB2A4B2838839
:1057B000A542B6BFC4EB43022A1B521992B29342D0
:1057C00006460F4613D20069002835D04FF0FF314E
:1057D00000F00EF9B2883069954236D2AC18A4B206
:1057E000748100283DD000F0FFF8B2881346F2B172
:1057F0009D4203D3ED1AADB29D42FBD2A34203D822
:10580000E41AA4B29C42FBD23168AC4201EB040022
:10581000786005D200233A803B810021F960F8BD11
:10582000D21A1B1B14443B803C81F960F8BD002355
:105830003B803B817B60F0E7AB420DD8ED1AACB208
:105840007481002BF3D01A46D5E7AC1AA4B2748148
:105850000028C8D11346CAE75C19A4B21A4674815D
:10586000C6E71346CAE700BF2DE9F84F374B074696
:10587000984214BF4FF480234FF400230E46344D5A
:10588000344C354A2B602360946833EA0404FBD11E
:105890000620FCF789FC3946022351F8042F4FEA11
:1058A000462E4FEAD65B704502EA030801F54059DF
:1058B00074EB0B02C9F8003011D34FEA965CB202C8
:1058C00001E05246AC460233B3F5807F07D01EEBB1
:1058D000020A4BEB0C05904274EB0C0CF1D24FF426
:1058E0008072C3EB03249446013A2DD0B0FBF4F54B
:1058F000AE42A4EB0304F6D20CFB03FC120202241A
:105900003B613B4603253E6801F500517240B0FB08
:10591000FCF002F47F4207F5805CCCF80020C1F86F
:1059200000807E68C9F8004053F8242B264082F09E
:10593000070202F0CF0203F50053CCF800200E60FE
:105940001D600C60BDE8F88F9C46D8E700800840D9
:1059500000200240003002400000024020F003011D
:1059600010F00300C0F1000051F8043B00F1040CFA
:105970004FEACC0C6FF000021CBF22FA0CF213436A
:105980004FF0010C4CEA0C2C4CEA0C4CA3EB0C0233
:1059900022EA030212EACC1204BF51F8043B04309D
:1059A000F4D0C2F1000102EA0102B2FA82F2C2F1BD
:1059B0001F0200EBD20070475FF800F0B505002031
:1059C0005FF800F0590600205FF800F0F5010020B4
:1059D0005FF800F0AD0200205FF800F02505002020
:1059E0005FF800F0110100205FF800F06502002070
:1059F0005FF800F02D02002089240010FD23001024
:105A00003124001019250010692400108123001092
:105A1000B12400106D23001099170010B524001058
:105A2000691B0010CD2300109D2400104D24001090
:0C5A300089130010B11300107531001034
:105A3C0059414D41484100004458000053595354BA
:105A4C00454D204D4F44450050524553532047502F
:105A5C0032330000544F2045584954000A2A2A2A50
:105A6C002050414E4943202A2A2A0A004E6F2073A7
:105A7C0070696E6C6F636B73206172652061766107
:105A8C00696C61626C6500004E6F207573657220E5
:105A9C00495251732061726520617661696C616253
:105AAC006C650000486172647761726520616C619D
:105ABC00726D20256420616C726561647920636C61
:105ACC0061696D65640000004861726420617373E4
