:020000041000EA
:10000000002008205B0100101B0100101D010010E2
:100010001101001011010010110100101101001058
:100020001901001019010010190100101F01001022
:10003000110100101901001021010010230100100E
:100040001101001011010010110100101101001028
:100050001101001011010010110100101101001018
:100060001101001011010010110100101101001008
:1000700011010010110100101101001011010010F8
:1000800011010010110100101101001011010010E8
:1000900011010010110100101101001011010010D8
:1000A00011010010110100101101001011010010C8
:1000B00011010010110100101101001011010010B8
:1000C00011010010110100101101001011010010A8
:1000D0001101001011010010110100101101001098
:1000E0001101001011010010110100101101001088
:1000F0001101001011010010110100101101001078
:100100001101001011010010110100101101001067
:10011000EFF30580103800BE00BE00BE00BE00BE7A
:1001200000BE00BEF2EB887144C5001070C500101F
:100130009C01001090A31AE7D3DEFFFF42012110BB
:10014000FF0100008CD20000793512AB00201E495F
:10015000086006C881F3088810474FF050400068D7
:1001600008B10020F3E70DA40ECC002902D000F066
:1001700012F8F9E71549164A002000E001C1914242
:10018000FCD114498847144988471449884700BE60
:10019000FDE701C901C29A42FBD3704770C5001048
:1001A00010010020640F0020C4D3001000000820BC
:1001B00000000820C4D30010001008200010082000
:1001C000000000007047000008ED00E0640F002010
:1001D00024240020697D0010E1010010617D0010E1
:1001E0002DE9F04F85B007F0E3FE4FF47A7005F08B
:1001F00085F9674807F026FF664807F023FF664841
:1002000007F020FF172004F0B9F94FF00005172080
:1002100045EC44000022012104F08CF9182004F080
:10022000ADF94FF00104182344EC443044EC403065
:10023000192004F0A3F9192344EC443045EC403074
:1002400001F012FA554807F0FDFE00F0BFF85448DF
:1002500007F0F8FE00F0C2F9524807F0F3FE5248EA
:1002600001F03AFE01F01CFF002800F08C804F489E
:1002700007F0E8FE4E4801F0BFFF4E4801F038FF9E
:1002800001F0EEFF18234FF0000242EC40304A48E4
:1002900007F0D8FE02F020F905F0CAF94FF0010886
:1002A0004FF05049CDE90201444EDFF818B1DFF8B4
:1002B00018A100F0B5F8044600F0D2F8054600F0A9
:1002C000D7F8D9F80430024603F40003002B14BF1A
:1002D0000127002702D1B8F1000F12D13AB35846D6
:1002E00007F0B0FE31785046013101F00301317062
:1002F00007F02AFF3378032B25D8DFE803F03C38DA
:100300004016019005F094F94CF25133029A801A8C
:10031000039A61EB0201984271F10001019ADDDB61
:1003200005F086F9CDE90201D9E702F0C5F8337886
:10033000032B08D8DFE803F016110C0204B915B13D
:10034000002002F0C3F8052005F0D8F8B846B0E761
:100350002146002002F0ACF9F5E72146002002F02A
:1003600079F9F0E72146002002F054F9EBE702F0BA
:100370009DF93378DCE702F0AFF83378D8E702F084
:1003800099F93378D4E70E4807F05CFE78E700BFB0
:10039000A0B30010CCB30010F8B3001024B40010C8
:1003A00040B4001064B4001044BF001080B40010CA
:1003B000A8B40010B4B40010DCB400101C24002059
:1003C000BCB4001000B5001020B5001038B50A20EC
:1003D00004F0D4F800240A2044EC44000121224611
:1003E00004F0A8F80B2004F0C9F80B2044EC4400FA
:1003F0000121224604F09EF80D2004F0BFF80D20E4
:1004000044EC44000121224604F094F84FF050439C
:100410005B68024AC3F38023137038BD710E00205D
:100420004FF0504110B40D4A4B68107803F48064CB
:10043000C3F3802398420DD054B9496811F4006F7A
:100440000CBF4FF0FF30012013705DF8044B704774
:100450000020F9E700205DF8044B7047710E002082
:100460004FF05043586880F40050C0F3403070475C
:10047000F8B54FF05043294F5C6805F0D9F83D7846
:10048000C4F34034A54219D044F6216C244E33689D
:10049000C21A736861EB0303624573F100030ADA61
:1004A000204A85F001041378012B0ED0022B14D0C2
:1004B00023B30020F8BDC6E900013C702546194A67
:1004C00085F001041378012BF0D1002DF1D0022426
:1004D000154B1470C3E90001EBE7134B1D685B6813
:1004E000401B61EB03018CB10123104C1370A0423F
:1004F00071F10001B4BF18460020F8BD002CD8D01F
:100500000124094B1470C3E90001D2E7084B834270
:1005100074EB0101CDDA1470CBE700BF700E002040
:10052000680F00201B240020F810002021A10700E4
:1005300020A1070010B50C4A0C4600F00F0141F055
:10054000C00193699806FCD41160084807F0FCFDCF
:10055000054A04F07F0193699B06FCD4BDE8104076
:100560000248116007F0F0BD0000074044B50010DC
:10057000094A08B59369D90601D5002008BD84460B
:100580009369DB06FCD4116804488CF80010C9B2EA
:1005900007F0DAFD012008BD0000074058B5001043
:1005A000012330B500240C4D85B00DF10B020093F2
:1005B0005A2128468DF80B40ADF80C400AF0E4FDB6
:1005C00002235A212846009403AA0AF0E5FDBDF84B
:1005D0000C0005B030BD00BF540F002008B50D4918
:1005E0000D480AF083FC0121062003F085FF01215C
:1005F000072003F081FF0121042003F07DFF052087
:1006000003F0BCFF05234FF0010242EC443042EC02
:10061000403008BD801A06000080084001490248A9
:100620000AF0DEBC20BCBE00008008402A232DE971
:10063000F04F83B007468DF8073000BF002646EC28
:100640004060012446EC404000BF794822460DF14D
:1006500007010AF075FE00BF44EC40408DF80760CA
:1006600000BF44EC406046EC404000BF704822466A
:100670000DF107010AF064FE00BF44EC4040C623C0
:100680008DF8073000BF44EC406046EC404000BFAE
:10069000674822460DF107010AF052FE00BF44EC04
:1006A00040408DF8074000BF44EC406046EC4040BD
:1006B00000BF5F4822460DF107010AF041FE00BF6E
:1006C00044EC404005238DF8073000BF44EC406007
:1006D00046EC404000BF564822460DF107010AF0A3
:1006E0002FFE00BF44EC40402B238DF8073000BFA5
:1006F00046EC406046EC404000BF4D4822460DF1BC
:1007000007010AF01DFE00BF44EC40408DF8076071
:1007100000BF44EC406046EC404000BF44482246E5
:100720000DF107010AF00CFE00BF44EC40406123CC
:100730008DF8063000BF44EC406046EC404000BFFE
:100740003B4822460DF106010AF0FAFD00BF44ECD9
:1007500040408DF8066000BF44EC406046EC4040ED
:1007600000BF334822460DF106010AF0E9FD00BF43
:1007700044EC4040C0238DF8053000BF44EC40609D
:1007800046EC404000BF2A4822460DF105010AF020
:10079000D7FD00BF44EC40402C238DF8053000BF4E
:1007A00046EC406046EC404000BF214822460DF137
:1007B00005010AF0C5FD00BF44EC404044EC406038
:1007C00046EC4040DFF870A0194C4FEA17284FF074
:1007D00008091AF8016F002580232B4113EA06024D
:1007E00014BF414611464FF0080B18BFFAB28DF8FE
:1007F00004108DF80520012201A920460AF0A0FD71
:10080000012220460DF105010AF09AFDBBF1010B12
:10081000F1D10135082DDFD1B9F10109DBD1054B4B
:100820005345D4D1012343EC403003B0BDE8F08FF1
:1008300000000840CFBB0010C3BB00102DE9F04FF3
:10084000A1F1200ABAF15E0F85B000F21081B0F577
:10085000A07F814680F00B812A2317468DF80F3048
:1008600000BF4FF0000848EC4080012448EC4040B5
:1008700000BF804822460DF10F010AF061FD00BF64
:1008800044EC40404FEA19238DF80F3000BF44EC90
:10089000408048EC404000BF764822460DF10F01F1
:1008A0000AF04EFD00BF44EC40405FFA89FB8DF832
:1008B0000FB000BF44EC408048EC404000BF6D48A2
:1008C00022460DF10F010AF03BFD00BF44EC404011
:1008D00009F127031B128DF80F3000BF44EC408054
:1008E00048EC404000BF634822460DF10F010AF07A
:1008F00027FD00BF44EC40400BF1270B8DF80FB0F3
:1009000000BF44EC408048EC404000BF59482246BC
:100910000DF10F010AF014FD00BF44EC40402B2301
:100920008DF80F3000BF48EC408048EC404000BFDD
:10093000504822460DF10F010AF002FD00BF44ECC1
:1009400040408DF80F8000BF44EC408048EC4040B0
:1009500000BF484822460DF10F010AF0F1FC00BF2C
:1009600044EC404079238DF80E3000BF44EC4080C9
:1009700048EC404000BF3F4822460DF10E010AF00E
:10098000DFFC00BF44EC40408DF80E8000BF44EC1B
:10099000408048EC404000BF364822460DF10E0131
:1009A0000AF0CEFC00BF44EC4040B4238DF80D307B
:1009B00000BF44EC408048EC404000BF2D48224638
:1009C0000DF10D010AF0BCFC00BF44EC40402C23AB
:1009D0008DF80D3000BF48EC408048EC404000BF2F
:1009E000244822460DF10D010AF0AAFC00BF44EC98
:1009F000404044EC408048EC40401F4B0AEB4A0A20
:100A000003EB8A0B0C3303EB8A031A4C01934FEA76
:100A100017284FF005091BF8016B002580232B4197
:100A200013EA060214BF414611464FF0050A18BFEB
:100A3000FAB28DF80C108DF80D20012203A9204682
:100A40000AF07EFC012220460DF10D010AF078FC2F
:100A5000BAF1010AF1D10135082DDFD1B9F101094F
:100A6000DBD1019B9B45D4D1012343EC403005B041
:100A7000BDE8F08F00000840B0BA00102DE9F04F3B
:100A8000A1F1200ABAF15E0F85B000F21081B0F535
:100A9000A07F814680F00B812A2317468DF80F3006
:100AA00000BF4FF0000848EC4080012448EC404073
:100AB00000BF804822460DF10F010AF041FC00BF43
:100AC00044EC40404FEA19238DF80F3000BF44EC4E
:100AD000408048EC404000BF764822460DF10F01AF
:100AE0000AF02EFC00BF44EC40405FFA89FB8DF811
:100AF0000FB000BF44EC408048EC404000BF6D4860
:100B000022460DF10F010AF01BFC00BF44EC4040EF
:100B100009F117031B128DF80F3000BF44EC408021
:100B200048EC404000BF634822460DF10F010AF037
:100B300007FC00BF44EC40400BF1170B8DF80FB0E1
:100B400000BF44EC408048EC404000BF594822467A
:100B50000DF10F010AF0F4FB00BF44EC40402B23E1
:100B60008DF80F3000BF48EC408048EC404000BF9B
:100B7000504822460DF10F010AF0E2FB00BF44ECA1
:100B800040408DF80F8000BF44EC408048EC40406E
:100B900000BF484822460DF10F010AF0D1FB00BF0B
:100BA00044EC404041238DF80E3000BF44EC4080BF
:100BB00048EC404000BF3F4822460DF10E010AF0CC
:100BC000BFFB00BF44EC40408DF80E8000BF44ECFA
:100BD000408048EC404000BF364822460DF10E01EF
:100BE0000AF0AEFB00BF44EC404064238DF80D30AA
:100BF00000BF44EC408048EC404000BF2D482246F6
:100C00000DF10D010AF09CFB00BF44EC40402C2389
:100C10008DF80D3000BF48EC408048EC404000BFEC
:100C2000244822460DF10D010AF08AFB00BF44EC76
:100C3000404044EC408048EC40401F4B0AEB4A0ADD
:100C400003EB8A0B0C3303EB8A031A4C01934FEA34
:100C500017284FF003091BF8016B002580232B4157
:100C600013EA060214BF414611464FF0030A18BFAB
:100C7000FAB28DF80C108DF80D20012203A9204640
:100C80000AF05EFB012220460DF10D010AF058FB2F
:100C9000BAF1010AF1D10135082DDFD1B9F101090D
:100CA000DBD1019B9B45D4D1012343EC403005B0FF
:100CB000BDE8F08F00000840B0BA00102DE9F04107
:100CC000012482B08DF8074000BF002747EC407038
:100CD00047EC404000BFDFF88482224640460DF1D9
:100CE00007010AF02DFB00BF44EC4040372004F020
:100CF00005FC11238DF8073000BF47EC407047EC2E
:100D0000404000BF224640460DF107010AF018FBA3
:100D100000BF44EC4040372004F0F0FB3A238DF84C
:100D2000073000BF47EC407047EC404000BF224610
:100D300040460DF107010AF003FB00BF44EC4040C0
:100D400055238DF8073000BF44EC407047EC40401D
:100D500000BF224640460DF107010AF0F1FA00BF3C
:100D600044EC404036238DF8073000BF47EC40701C
:100D700047EC404000BF224640460DF107010AF013
:100D8000DFFA00BF44EC404060238DF8073000BF1D
:100D900044EC407047EC404000BF224640460DF115
:100DA00007010AF0CDFA00BF44EC404021238DF842
:100DB000073000BF47EC407047EC404000BF224680
:100DC00040460DF107010AF0BBFA00BF44EC404079
:100DD0002A238DF8073000BF47EC407047EC4040B5
:100DE00000BF224640460DF107010AF0A9FA00BFF4
:100DF00044EC40408DF8077000BF44EC407047EC75
:100E0000404000BF224640460DF107010AF098FA23
:100E100000BF44EC40408DF8067000BF44EC4070C9
:100E200047EC404000BF224640460DF106010AF063
:100E300087FA00BF44EC40408DF8054000BF44EC09
:100E4000407047EC404000BF224640460DF105018E
:100E50000AF076FA00BF44EC40403F238DF805309D
:100E600000BF44EC407047EC404000BF2246404683
:100E70000DF105010AF064FA00BF44EC40402B2359
:100E80008DF8053000BF47EC407047EC404000BF94
:100E9000224640460DF105010AF052FA00BF44EC2B
:100EA00040408DF8057000BF44EC407047EC404076
:100EB00000BF224640460DF105010AF041FA00BF8D
:100EC00044EC40408DF8047000BF44EC407047ECA7
:100ED000404000BF2246404601A90AF031FA00BF57
:100EE00044EC40408DF8037000BF44EC407047EC88
:100EF000404000BF224640460DF103010AF020FAAF
:100F000000BF44EC4040EF238DF8023000BF44ECBA
:100F1000407047EC404000BF224640460DF10201C0
:100F20000AF00EFA00BF44EC404029238DF802304D
:100F300000BF47EC407047EC404000BF22464046AF
:100F40000DF102010AF0FCF900BF44EC40403720EB
:100F500004F0D4FA02B0BDE8F08100BF0000084000
:100F60002DE9F04FB0F5A07F87B0BDF840A080F02C
:100F700009811546002A00F005811F461318B3F5B4
:100F8000A07FC8BFC0F5A07501F12303C8BFADB2F3
:100F9000EF2B064600F3F680002F00F0F3807A1E58
:100FA0001A44EF2A019700F2F080D2B202922A226C
:100FB00003938DF8172000BF002444EC4040012724
:100FC00044EC407000BF74483A460DF117010AF036
:100FD000B7F900BF47EC4070310A8DF8171000BF19
:100FE00047EC404044EC407000BF6B483A460DF17E
:100FF00017010AF0A5F900BF47EC40705FFA86FBC5
:101000008DF817B000BF47EC404044EC407000BF83
:1010100061483A460DF117010AF092F900BF47EC1A
:1010200040702E44013E36128DF8176000BF47EC29
:10103000404044EC407000BF57483A460DF117015C
:101040000AF07EF900BF47EC40700BF1FF3BAB4468
:101050008DF817B000BF47EC404044EC407000BF33
:101060004D483A460DF117010AF06AF900BF47EC06
:1010700040702B218DF8171000BF44EC404044EC29
:10108000407000BF44483A460DF117010AF058F984
:1010900000BF47EC40708DF8174000BF47EC404060
:1010A00044EC407000BF3C483A460DF117010AF08D
:1010B00047F900BF47EC4070039B8DF8163000BF26
:1010C00047EC404044EC407000BF33483A460DF1D5
:1010D00016010AF035F900BF47EC40708DF8164054
:1010E00000BF47EC404044EC407000BF2A483A46FD
:1010F0000DF116010AF024F900BF47EC4070029B85
:101100008DF8153000BF47EC404044EC407000BF04
:1011100021483A460DF115010AF012F900BF47ECDB
:1011200040702C238DF8153000BF44EC404044EC57
:10113000407000BF18483A460DF115010AF000F959
:1011400000BF47EC407047EC404044EC4070019BCE
:101150008DF815A003FB05F54FEA1A2A0E4E8DF8FF
:1011600014A0012205A930460AF0EAF80134012250
:1011700030460DF115010AF0E3F8A542F1D1012343
:1011800043EC403007B0BDE8F08FC1F1CD018AB229
:101190000192EF2202920AE7000008402A23F0B5EC
:1011A00083B08DF80730030A8DF801308DF8020006
:1011B00000BF002646EC4060012446EC404000BFE2
:1011C000674822460DF107010AF0BAF800BF44EC67
:1011D00040408DF8076000BF44EC406046EC404062
:1011E00000BF5F4822460DF107010AF0A9F800BFD1
:1011F00044EC40408DF8066000BF44EC406046EC93
:10120000404000BF564822460DF106010AF098F80A
:1012100000BF44EC40408DF8054000BF44EC406006
:1012200046EC404000BF4E4822460DF105010AF051
:1012300087F800BF44EC40403F238DF8053000BFE5
:1012400044EC406046EC404000BF454822460DF16A
:1012500005010AF075F800BF44EC40402B238DF8DF
:10126000053000BF46EC406046EC404000BF3C48C3
:1012700022460DF105010AF063F800BF44EC40403E
:101280008DF8056000BF44EC406046EC404000BF74
:10129000334822460DF105010AF052F800BF44EC34
:1012A000404023238DF8043000BF44EC406046ECFE
:1012B000404000BF2A48224601A90AF041F800BF79
:1012C00044EC40408DF8046000BF44EC406046ECC4
:1012D000404000BF2248224601A90AF031F800BF71
:1012E00044EC4040EF238DF8033000BF44EC4060F5
:1012F00046EC404000BF1A4822460DF103010AF0B7
:101300001FF800BF44EC40402C238DF8033000BF91
:1013100046EC406046EC404000BF114822460DF1CB
:1013200003010AF00DF800BF44EC404044EC40607B
:1013300046EC40400B4C0A4D012228460DEB0201C1
:1013400009F0FEFF012228460DF1020109F0F8FF25
:10135000013CF1D1012343EC403003B0F0BD00BFAC
:1013600000000840400001002DE9F04F2DED048BF6
:1013700000208BB0FFF712FF0024DFEDB79AB1EE2B
:10138000009A07EE904AF8EEE77A0025862367EE8A
:10139000A97A4FF0800B08EE905A12215D201A4670
:1013A0000095AE4FCDED087AFFF7DAFD099417F8F6
:1013B000019F4FF0000AB2EE0A8AB8464BFA0AF3D0
:1013C00013EA090F7BD007EE90AAF8EEE77A77EEE2
:1013D000C97A67EE887A17EE900A09F0B9FF0246DB
:1013E0000B460898CDE9022309F0B2FF04460D46EA
:1013F00004F037FFB1EE087AF8EEE87A77EEC77AB4
:1014000067EE887A064617EE900A0F4609F0A0FFAD
:1014100002460B4620462946CDE9042304F01CFF72
:1014200032463B46CDE9066706460F46DDE9020136
:1014300004F0A6FC324604460D46DDE904013B46B5
:1014400004F09EFC02460B462046294604F084FC2C
:1014500004F008FD07EE900AFDEEE77A17EE904AD9
:101460009B34B4F59B7F2AD8DDE9020132463B4626
:1014700004F086FCDDE9042306460F46DDE906019B
:1014800004F07EFC0B4602463946304604F050FC20
:1014900004F0E8FC07EE900AFDEEE77A17EE901AEA
:1014A00001F12D03A02B01F15001A0B289B206D8A1
:1014B00040F2FF720A2300921A46FFF751FD0AF12B
:1014C000010ABAF1080F7FF479AF18EE903A0133B0
:1014D0000C2B474608EE903A7FF469AF099C1E201A
:1014E000013404F00BF8182C7FF44BAF0020FFF709
:1014F00055FE41F282064F255921594CA1F1200396
:101500005E2B40F2848014F8011F0029F6D13220AE
:1015100003F0F4FF4BF2965306F584560236B6B24A
:101520009E42E8D14F2559214D4CA1F120035E2B5D
:1015300040F2858014F8011F0029F6D1C82003F07D
:10154000DDFF41F282065E254421464CA1F12003D5
:101550005E2B51D914F8011F0029F7D1322003F076
:10156000CDFF4BF2965306F584560236B6B29E4234
:10157000E9D15E2544213B4CA1F120035E2B52D9D9
:1015800014F8011F0029F7D141F282044FF496703C
:1015900003F0B4FF49F29246254660082C44FFF759
:1015A00045F8A4B2322003F0A9FFB442F5D140F2CD
:1015B000FF70FFF73BF84FF4967003F09FFF40F287
:1015C000FF70FFF733F84FF4967003F097FF4FF476
:1015D000FC60FFF72BF84FF4967003F08FFF40F29A
:1015E000FF70FFF723F84FF47A700BB0BDEC048B5B
:1015F000BDE8F04F03F082BF28463246FFF71EF9E0
:1016000014F8011F3235ADB200299FD1A6E7284654
:101610003246FFF733FA14F8011F1E35ADB2002928
:101620007FF46CAF73E728464FF6FF72FFF706F9B9
:1016300014F8011F3235ADB200299DD1A4E7284628
:101640004FF6FF72FFF71AFA14F8011F1E35ADB2FC
:1016500000297FF46AAF71E78B0A863EC3BB001096
:101660006CB5001074B50010F8B50C2002F086FFC0
:1016700001240C2644EC4460002002F07FFF002788
:1016800044EC4470204602F079FF44EC444044ECC2
:10169000404044EC4060642003F030FF47EC406081
:1016A000642003F02BFF44EC40600226642003F02A
:1016B00025FF194D2146032002F01EFF214602207E
:1016C00002F01AFF2846154909F010FC0321144BBB
:1016D0006A685E602B68DFF850C0124883F0070329
:1016E000324003F0CF03CCF800304260084602F0ED
:1016F00035FF3046032102F031FF3846032102F066
:101700002DFF2046032102F029FFFFF7D7FABDE89D
:10171000F840FFF729BE00BF00000840A0ACB903A5
:101720000030084000200840001008402DE9F04F2C
:10173000B0F5A07F87B0BDF840A080F009811546C4
:10174000002A00F005811F461318B3F5A07FC8BF1B
:10175000C0F5A07501F12303C8BFADB2EF2B06465B
:1017600000F3F680002F00F0F3807A1E1A44EF2A6F
:10177000019700F2F080D2B202922A2203938DF8F0
:10178000172000BF002444EC4040012744EC407087
:1017900000BF74483A460DF1170109F0D1FD00BFB2
:1017A00047EC4070310A8DF8171000BF47EC4040FD
:1017B00044EC407000BF6B483A460DF1170109F048
:1017C000BFFD00BF47EC40705FFA86FB8DF817B095
:1017D00000BF47EC404044EC407000BF61483A46CF
:1017E0000DF1170109F0ACFD00BF47EC40702E442D
:1017F000013E36128DF8176000BF47EC404044ECC4
:10180000407000BF57483A460DF1170109F098FDA6
:1018100000BF47EC40700BF1FF3BAB448DF817B0B5
:1018200000BF47EC404044EC407000BF4D483A4692
:101830000DF1170109F084FD00BF47EC40702B212A
:101840008DF8171000BF44EC404044EC407000BFDE
:1018500044483A460DF1170109F072FD00BF47EC0C
:1018600040708DF8174000BF47EC404044EC40709A
:1018700000BF3C483A460DF1170109F061FD00BF79
:1018800047EC4070039B8DF8163000BF47EC40409A
:1018900044EC407000BF33483A460DF1160109F0A0
:1018A0004FFD00BF47EC40708DF8164000BF47EC7D
:1018B000404044EC407000BF2A483A460DF1160102
:1018C00009F03EFD00BF47EC4070029B8DF81530DB
:1018D00000BF47EC404044EC407000BF21483A460E
:1018E0000DF1150109F02CFD00BF47EC40702C23D1
:1018F0008DF8153000BF44EC404044EC407000BF10
:1019000018483A460DF1150109F01AFD00BF47ECE1
:10191000407047EC404044EC4070019B8DF815A0AE
:1019200003FB05F54FEA1A2A0E4E8DF814A001228A
:1019300005A9304609F004FD0134012230460DF1BD
:10194000150109F0FDFCAC42F1D1012343EC40301C
:1019500007B0BDE8F08FC1F1CD018AB20192EF224C
:1019600002920AE7000008402DE9F04F203A87B0C4
:101970005E2ABDF84060119C009211D8B0F5A07F9E
:1019800082460DD21D4600EBC403002B4FEAC40073
:101990000190039304DD02912331EF29019102DDCF
:1019A00007B0BDE8F08F2A228DF8172000BF4FF056
:1019B000000949EC40904FF0010B49EC40B000BFEA
:1019C0000DF117075A4639468D4809F0B9FC00BF9A
:1019D0004BEC40B04FEA1A218DF8171000BF4BECCA
:1019E000409049EC40B000BF0DF1170C5A466146DB
:1019F000834809F0A5FC00BF4BEC40B05FFA8AFABF
:101A00008DF817A000BF4BEC409049EC40B000BFF0
:101A10000DF1170C5A466146794809F091FC00BF58
:101A20004BEC40B0039B013B1B128DF8173000BFFD
:101A30004BEC409049EC40B000BF0DF1170C5A46FA
:101A400061466F4809F07CFC00BF4BEC40B00AF1E6
:101A5000FF3AE00050448DF8170000BF4BEC409077
:101A600049EC40B000BF0DF1170C5A46614664487E
:101A700009F066FC00BF4BEC40B02B238DF817300B
:101A800000BF49EC409049EC40B000BF0DF1170C8D
:101A90005A4661465A4809F053FC00BF4BEC40B02F
:101AA0008DF8179000BF4BEC409049EC40B000BF60
:101AB0000DF1170001465A46514809F041FC00BF9C
:101AC0004BEC40B001998DF8161000BF4BEC4090E4
:101AD00049EC40B000BF4A485A460DF1160109F0E2
:101AE0002FFC00BF4BEC40B08DF8169000BF4BECC4
:101AF000409049EC40B000BF41485A460DF11601F4
:101B000009F01EFC00BF4BEC40B0029B04EB44010B
:101B1000223303EB8103EF2B28BFEF238DF8153021
:101B200000BF4BEC409049EC40B000BF34485A46EF
:101B30000DF1150109F004FC00BF4BEC40B02C2363
:101B40008DF8153000BF49EC409049EC40B000BF23
:101B50002B485A460DF1150109F0F2FB00BF4BEC82
:101B600040B04BEC409049EC40B04C4542DD4FF06A
:101B70008009009A234B02EB420BDFF8848003F1CB
:101B80000C0202EB8B0203EB8B030027394613F8A0
:101B900001AB029201930027009149FA07F313EA7F
:101BA0000A0F0CBF32462A464FF0000B8DF8152065
:101BB000120A8DF81420012205A9404609F0C0FB45
:101BC000012240460DF1150109F0BAFB5A460BF10E
:101BD000010B5C45EFD10137082FDED11346009988
:101BE000994201F1010201D01146D4E7DDE9013249
:101BF0009342CAD1012343EC403007B0BDE8F08FD7
:101C000000000840B0BA00102DE9F04714461278E1
:101C100082B0BDF828A0DDF82C807AB105460E46CA
:101C20001F464FEAC8094FEA480CE144A2F12003DD
:101C30005E2B06D914F8012F002AF7D102B0BDE8B7
:101C4000F08728463B463146CDE900A8FFF78CFED9
:101C500014F8012F4D44ADB2002AE7D102B0BDE81F
:101C6000F08700BF2DE9F04F89B09DF84840B0F5EE
:101C7000A07F0194BDF85060BDF84C40029280F006
:101C80001D811D46C318074600F018812331EF2936
:101C900000F31481019A013A0A44EF2AC9B2039170
:101CA00000F20F81D2B205922A2204938DF81F20F0
:101CB00000BF4FF0000B4BEC40B04FF001094BEC74
:101CC000409000BF83484A460DF11F0109F038FBE0
:101CD00000BF49EC4090390A8DF81F1000BF49EC55
:101CE00040B04BEC409000BF7A484A460DF11F01CE
:101CF00009F026FB00BF49EC4090FFB28DF81F7041
:101D000000BF49EC40B04BEC409000BF71484A46E0
:101D10000DF11F0109F014FB00BF49EC4090049B3A
:101D2000013B1B128DF81F3000BF49EC40B04BEC5B
:101D3000409000BF67484A460DF11F0109F000FBC3
:101D400000BF49EC40906B1E1F448DF81F7000BF10
:101D500049EC40B04BEC409000BF5E484A460DF164
:101D60001F0109F0EDFA00BF49EC40902B238DF8DC
:101D70001F3000BF4BEC40B04BEC409000BF5548CB
:101D80004A460DF11F0109F0DBFA00BF49EC409013
:101D90008DF81FB000BF49EC40B04BEC409000BF45
:101DA0004C484A460DF11F0109F0CAFA00BF49EC40
:101DB0004090039B8DF81E3000BF49EC40B04BECC7
:101DC000409000BF43484A460DF11E0109F0B8FAA1
:101DD00000BF49EC40908DF81EB000BF49EC40B008
:101DE0004BEC409000BF3B484A460DF11E0109F004
:101DF000A7FA00BF49EC4090059B8DF81D3000BF4D
:101E000049EC40B04BEC409000BF32484A460DF1DF
:101E10001D0109F095FA00BF49EC40902C238DF884
:101E20001D3000BF4BEC40B04BEC409000BF294848
:101E30004A460DF11D0109F083FA00BF49EC4090BC
:101E400049EC40B04BEC4090019BA3B39DB31A46C4
:101E5000029B204F03EB4202CDE901324FEA162BE1
:101E60004FF0000A4FF40048019B33F8029B0193A6
:101E700048FA0AF313EA090F4FEA142C4FF0010253
:101E800007A9384619BF8DF81CC08DF81D408DF884
:101E90001CB08DF81D600AF1010A09F051FA012207
:101EA00038460DF11D0109F04BFA5545E0D1DDE949
:101EB00001239342D4D1012343EC403009B0BDE863
:101EC000F08FEF220592039AC2F1F002D2B2019292
:101ED000EAE600BF00000840034A044B002818BF90
:101EE00002461A60704700BF80BD00100C1400202D
:101EF00000B53448ADF50D7D02F0AEF910F0F70FE6
:101F000002D1314800F0CAFA0021304802F078F9D5
:101F100070B900212E4802F073F910BB00212D4842
:101F200002F06EF9002835D10DF50D7D5DF804FB4A
:101F30000A22264902A801F077FD0028E9D12649A6
:101F40008C2201AB02A801F03BFF02A802F02CF8A2
:101F5000224800F0A3FA00211D4802F051F90028A0
:101F6000DCD00A221A4902A801F05EFD0028D5D172
:101F70001B49472201AB02A801F022FF02A802F090
:101F800013F8184800F08AFA0021124802F038F9D4
:101F90000028C9D00A220F4902A801F045FD0028F7
:101FA000C2D14622104901AB02A801F009FF02A8E4
:101FB00001F0FAFF0D4800F071FA0DF50D7D5DF8A6
:101FC00004FB00BF58B6001078B50010A8B400108C
:101FD0004CB60010C4B6001098B5001028B600101A
:101FE0005CB60010A4B60010D8B6001020B70010E0
:101FF00038B50C462E21054609F03EF9F8B1854268
:102000001CD00378EBB12146104D13E0144615F8AF
:1020100003C0AA5C0CF0030CBCF1010F02F0030238
:1020200008BF2033012A08BF2034A34206D110F88C
:10203000013F2BB111F8012B002AE7D1002038BD58
:102040000C462278B2FA82F0400938BD39C400103B
:10205000004870470000E15C38B50C4D2C7814B195
:102060000124204638BD0A4901220A4801F0ACFC8F
:10207000014628B9012308482B7005F0E3FFEFE77C
:1020800006482C7006F060F8204638BD1D2400205C
:1020900040B70010B416002044B7001050B700102D
:1020A00010B5FEF79BFA01220C490D4801F08CFC9B
:1020B00038B100240B4B0C481C7000F0EFF920469F
:1020C00010BD0124074B1C70FEF7A8FA074800F06A
:1020D000E5F9FFF70DFF204610BD00BF40B7001027
:1020E00080140020A81B00207CB7001064B70010EB
:1020F00000232DE9F0473A4D92B095F800806B80AF
:10210000B8F1000F05D14FF00008404612B0BDE80D
:10211000F0870446014607A801F0ACFF0028F2D181
:1021200023782F2B3CD16378002B39D1DFF8C09076
:10213000DFF8C0A001A907A801F0ECFF48BB9DF89B
:102140000D3033B32E2BF5D09DF80C4014F006045F
:10215000F0D16E8806EB461004303F2E28444FEA3B
:10216000461716D80DF10D034A46202105F0B2FDA1
:102170009DF80C30DB0622D56B8837442F440133A1
:1021800001A907A887F824406B8001F0C3FF00284D
:10219000D5D007A801F0A6FF404612B0BDE8F087F1
:1021A0002378002BC2D0002385F824306B880D4A99
:1021B0000D49013303C96B8082E80300B6E751463D
:1021C0000DF10D00FFF714FF08B10124D4E7074912
:1021D0000DF10D00FFF70CFFC0F10204E4B2CBE7F4
:1021E000A81B0020AC1B002090B70010A4B7001063
:1021F00098B700109CB7001030B5154BADF51D7D9C
:102200001D78C5B10146012212A801F00DFC90B95C
:1022100001903F2201AB12A802A901F0FBFC044689
:1022200012A801F0C1FE34B9019B002B03DD284642
:102230000DF51D7D30BD0025064B07484FF6FF729A
:102240001860284605491A8159600DF51D7D30BD7D
:10225000A81B0020740E00200000FFFFFF07E318FA
:10226000014B1888FEF79ABF740E0020F0B50D469A
:10227000002107461D4C8BB0E388164608460093A4
:102280004FF4A0721623FFF751FA0C213B460127A9
:102290000DEB0100164A05F01DFD0197E38803AA26
:1022A0000093A38804210620FFF7AEFC1148124BCF
:1022B0001021002D08BF0346104A009606A805F01D
:1022C00009FDE38801970093A38806AA0421D22080
:1022D000FFF79AFCA48802234FF4A0721621002075
:1022E0000094FFF723FA0BB0F0BD00BF740E00207E
:1022F00098B70010B0B70010ACB70010B4B700101A
:1023000010B5064A82B01488B5234FF4A072182184
:1023100000200094FFF70AFA02B010BD740E0020EE
:102320002DE9F04F01260C46534DDFF86CB191B00A
:102330000122297882465148FFF798FFBBF8003008
:102340004F4ACDE900361E21BBF804300A20FFF7C2
:102350005BFC204608F0FCFF06ACCDE90001494AD1
:102360002821204605F0B6FC0196BBF800302E214E
:102370000093BBF802300A202246FFF745FC2B7879
:10238000002B74D0282120466B883F4A05F0A2FC20
:102390000125BBF8003022460093BBF802303C21F7
:1023A0000A200195FFF730FCBBF800305021CDE941
:1023B00000350A20354ABBF80230FFF725FC00261D
:1023C00006F0030505EBC503B41005EB4305C4EBAC
:1023D00004140A355C344AFA06F71FFA85F91FFA25
:1023E00084F817F001034D464446039320D0BBF810
:1023F00004400C231022414648460094FFF796F90A
:1024000033460321224A05A805F064FC012208F1A5
:102410000201CDE90042002305AA89B209F10300B7
:102420000136FFF7F1FB0C2ECAD111B0BDE8F08FD9
:1024300043F2A6170C231022414648460097FFF7A7
:1024400075F933460321124A05A805F043FC012023
:10245000A11C0190039B05AA009789B2E81C0136D4
:10246000FFF7D2FB0C2EABD111B0BDE8F08F094BBA
:102470000FCB84E80F008BE7A81B0020C4B7001027
:10248000C8B70010DCB70010F8B700101CB8001077
:102490002CB800100CB80010740E00200FB400B55A
:1024A00083B004A951F8040B019105F0E9FD03B0D4
:1024B0005DF804EB04B0704708B5FEF771F8BDE8AD
:1024C00008400149FFF72CBFEC51A0400149FFF73C
:1024D00027BF00BFEC51A0402DE9F043414B91B024
:1024E000197801224048FFF7C1FEFFF709FF2021BC
:1024F0004FF001083D4A3E4C107801233D4A0090C0
:102500000DEB010005F0E6FB258823891E210A203A
:10251000CDE9005808AAFFF777FBE588002600956B
:10252000382548234FF4967232210A20FFF7FEF82F
:10253000314B05AF93E8070087E80700DFF8D0903C
:10254000D9F80030B4F806C0B3420CBFA388638842
:10255000294657F8042B1620CDE900C80136FFF7AD
:1025600053FB1835032EADB2EAD10C252188228900
:102570001023CDE901212D209B21204A0095FFF752
:1025800071FB2688009502962689102301969B21CF
:1025900064201B4AFFF766FB9B2120880095029070
:1025A000208910230190174A0846FFF75BFB268815
:1025B000009502962689102301969B21D220124A6B
:1025C000FFF750FB268800950296248910239B2153
:1025D00040F209100D4A0194FFF744FB11B0BDE829
:1025E000F08300BFA81B002030B800107E0E002032
:1025F000740E002038B8001074BD001068BA0010C6
:1026000098BA001080BA001050BA001038BA001002
:10261000EC23002010B50C4682B00DF10700FDF749
:10262000A7FF0028F9D124B1084B1A681444022CE2
:1026300001D902B010BD064AE1B21C604B1C1370F8
:10264000FDF778FFFFF748FF02B010BDEC23002034
:102650007E0E002070B50C46FFF7FEFCA0B11048BE
:1026600042888AB184B10F4D2B68E4180DD494428E
:102670000FDA04EB4413611C043303442C600A4852
:10268000BDE8704005F060BD70BD00240423012149
:10269000F3E7541E04EB441311460433EDE700BF87
:1026A000A81B0020B016002074B80010704700BFAF
:1026B000704700BF704700BF037810B5202B00F0B3
:1026C0008780052B08BFE5234B7243784FF0010C40
:1026D000202B00F08380052B08BFE5230CF10102BD
:1026E0008C448CF809308378202B7BD0052B08BFD5
:1026F000E52302F1010C0A445372C378202B75D0F4
:10270000052B08BFE5230CF101028C448CF809303D
:102710000379202B6ED0052B08BFE52302F1010CB5
:102720000A4453724379202B68D0052B08BFE52358
:102730000CF101028C448CF809308379202B61D094
:10274000052B08BFE52302F1010C0A445372C2793C
:10275000202A5BD0052A08BFE5220CF101038C4436
:102760008CF80920027A202A0DD0052A08BFE5221C
:102770002E2403F1010C01EB030E8C448EF809406A
:1027800002338CF80920427A202A43D0052A08BF58
:10279000E52203F1010C0B445A72837A202B37D0C7
:1027A000052B08BFE5230CF101028C448CF809309D
:1027B0004FF0000C8B1883F809C0C37A03F03F0375
:1027C0000B72C3690B60C38ACB80038B8B8010BDF7
:1027D00043784FF0000C202B7FF47DAF8378624666
:1027E000202B83D1C3789446202B89D1037962466C
:1027F000202B90D143799446202B96D18379624641
:10280000202B9DD19446C279202AA3D16346A9E703
:102810006246CDE79C46C0E770B5037904465BB9D4
:102820006579012D22D000226078114601F052FE18
:10283000003818BF012070BD00F13005C2690123C6
:102840002946407801F040FE98BBD4E90626636A29
:102850002071F31A9342E3D2E378022BE0D10123F3
:1028600029466078324401F02FFED9E70021237811
:102870006171032BD7D104F130064FF4007230465A
:1028800008F042FD0C480D4A2063C4F81422D4E934
:102890000302C4F81822226A094B0132C4F82C3210
:1028A000C4F81C022B4631466078E26101F00CFE50
:1028B000B9E7012070BD00BF52526141727241619F
:1028C000000055AAC2698A4201D10020704770B544
:1028D000044603790D46407804F130065BB92A4678
:1028E0000123314601F0EAFD00281CBF4FF0FF35FF
:1028F0000120E56170BD0123314601F0E5FD88B995
:10290000E169636AA269CB1A934220716078E6D2CA
:10291000E378022BE3D10A440123314601F0D4FDD0
:102920006078DCE7012070BD2DE9F84F0678044699
:10293000022E0D46904642D0032E2AD0012E56D1AB
:10294000416A05EB550901EB5921FFF7BBFF07462B
:10295000E0B909F1010BEB07C9F3080904F1300AEA
:102960005FFA88F14FEA5B2245D51AF80930204614
:1029700003F00F0343EA01130AF80930616A267174
:102980001144FFF79FFF00284ED007463846BDE8A8
:10299000F88F416A01EBD511FFF794FF0746002835
:1029A000F4D10121AD0004F1300205F4FE75535954
:1029B000384668F31B0353512171BDE8F88F416A13
:1029C00001EB1521FFF77EFF07460028DED101212C
:1029D0006D0004F1300305F4FF7503F80580C8F3BA
:1029E00007222B445A7021713846BDE8F88F022720
:1029F0003846BDE8F88F0AF80910616A204626714A
:102A00001144FFF75FFF0028BFD1CBF3080B1AF882
:102A10000B30C8F3032223F00F03DA4413430122DF
:102A20008AF800302271B1E7CBF3080BDA44C8F31F
:102A30000713F4E7012919D94269F8B591420C4608
:102A4000064611D20278022A21D0032A10D0012A88
:102A50000AD1416A04EB540501EB5521FFF732FF1F
:102A600010B34FF0FF30F8BD0120F8BD01207047D2
:102A7000416A01EBD411FFF725FF0028F1D1A40032
:102A800004F4FE743319186B20F07040F8BD416AED
:102A900001EB1421FFF716FF0028E2D1600000F4DB
:102AA000FF703044008EF8BD716A6F1CC5F30805D5
:102AB0003544304601EB572195F83050FFF702FFBF
:102AC0000028CED1C7F30807374497F8303045EADD
:102AD0000320E3074CBF0009C0F30B00F8BD00BFA3
:102AE0002DE9F047D0F8189004460768B9F1000FB7
:102AF0002FD007F13008FA694A4513D03B7978782E
:102B0000002B63D101234A46414601F0D7FC38B17E
:102B10004FF0FF33FB6101200023A361BDE8F08784
:102B2000C7F81C90E3691A789AB1DB7AE52A03F0BA
:102B30003F03A37107D02E2A05D00F2B03D023F01B
:102B40002003082B24D1256926682035B5F5001F00
:102B500001D30420E0E7D4F81890B9F1000FF8D0C1
:102B6000C5F3080323B130361E442561E661C2E790
:102B7000616909F10109C4F8189061B93389B3EBAF
:102B8000551FE6D930362561E661B9F1000FB2D1A3
:102B90000020BDE8F0877389013B13EA552AF1D183
:102BA0003046FFF747FF01282ED9431CB3D0736985
:102BB0009842CED2023B6061023898421ED272899E
:102BC000F36A00FB0239C4F81890DBE701234146A1
:102BD00001F07AFC00289ED1F9697B6ABA69CB1AA8
:102BE0009342387178788DD2FB78022B8AD10A44CF
:102BF0000123414601F068FC787883E73036C4F859
:102C000018A02561E661C3E7022085E770B54FF0A3
:102C1000FF360023B14204460371C66130D194F8F7
:102C20003030B4F82E52EB2B0AD01833DBB2012B24
:102C300006D94AF6552085420CBF0220032070BDFC
:102C40004AF655239D4209D0B4F83B305A1E1A4229
:102C500002D1B3F5007F21D0032070BD08222449A2
:102C600004F1820008F064FB0028E8D0B4F83B309F
:102C70005A1E1A4202D1B3F5007F30D0022070BD37
:102C80000D460A460123407804F1300101F016FC9C
:102C900010B10420E66170BDE561C0E794F83D30F5
:102CA000002BD9D05A1E1A42D6D1E38F002BC0D0A8
:102CB00094F84030013B012BBBD8B4F84130002BD5
:102CC000B7D0B4F843303F2B03D8236DB3F5803F22
:102CD000AFD3B4F84630002BABD0002070BD94F8D1
:102CE0003D30002BCAD05A1E1A42C7D1DDE700BFC3
:102CF000B4B80010F8B5002305680B60002D00F093
:102D0000E2802C4602E03A2B00F0A98014F8013B47
:102D1000202BF8D8914B1C68002C00F0B7800C6079
:102D20002378607802F0FE0553B101F0B9FBC607C5
:102D300005D415B1410700F1A7800020F8BD6078E7
:102D40000023237001F0B0FBC20700F1908015B1A1
:102D5000430700F1998000212046FFF757FF022822
:102D60006FD0042800F08E80012876D8B4F83B306C
:102D7000E169B3F5007F70D1B4F846301BB9636DDB
:102D8000B3F5001F69D294F84000A361421E012AE6
:102D9000E07062D894F83D206281002A5DD0551E13
:102DA00015425AD1B4F841C01CF00F0FA4F808C066
:102DB00053D1B4F8435005B9256DE78F002F4CD09F
:102DC00003FB00F007EB1C160644B54245D3A5EB08
:102DD000060E9645BEFBF2F53FD3614A95423CD8BC
:102DE0004FF6F572954270D840F6F572954200F2B2
:102DF0008C80202D31D902350F440E442162E662C9
:102E000065616762BCF1000F27D005EB450205F054
:102E1000010505EB52050122384405F2FF15B3EB1D
:102E2000552FA06219D34FF0FF338021C4E903333B
:102E300061714C4922700B8801339BB20B80E38097
:102E40007BE7D4F8F611D4F80662D4F81652D4F819
:102E50002672E9B926BB65BB5FB90D20F8BD2B789A
:102E6000302B30D10235AC422DD1046052E7032023
:102E7000F8BD39462046FFF7C9FE01287FF676AF38
:102E80000428EAD10120F8BD0A20F8BD0C20F8BDC5
:102E90002046FFF7BBFE01287FF668AF002EDAD090
:102EA00031462046FFF7B2FE01287FF65FAF002DC6
:102EB000D2D029462046FFF7A9FE01287FF656AF5B
:102EC000002FCAD0D5E70B20F8BDB4F85A20023540
:102ED0000F440E445CEA02026762E66265612162A9
:102EE000BBD1AD00E06D05F2FF12B3EB522FA06233
:102EF000B3D34FF0FF338020B4F86020C4E903332C
:102F0000012A60710FD0032293E702350F440E446B
:102F10002162E66265616762BCF1000F9DD002220A
:102F200038446D0079E720460131FFF7CBFC0028DB
:102F3000E9D1216B0C4A60719142E4D1D4F814229A
:102F40000A4B9A42DFD1D4F82C22094B9A4204BF93
:102F5000D4E98623C4E90332D5E700BF001100207D
:102F6000F5FFFF0F16240020525261417272416139
:102F7000000055AA2DE9F843002384680646076837
:102F800003618CB93B78022B0AD83B895BB3BB6ADF
:102F9000C6E905433BB330370020F761BDE8F8834D
:102FA000BB6A002BF1D01C467B89002B5FD1012C22
:102FB00019D03D466B69A34215D92B78022B2BD033
:102FC000032B13D0012B0ED1696A04EB5408284659
:102FD00001EB5821FFF776FC60B30120BDE8F883D0
:102FE0000023C6E905430220BDE8F883696A284644
:102FF00001EBD411FFF766FC0028EED1A30003F427
:10300000FE732B441C6B24F07044012CEBD97B69BC
:10301000A342E8D93568CDE7696A284601EB142157
:10302000FFF750FC0028D8D1630003F4FF732B4452
:103030001C8EEAE7696A08F10109C8F30808A84488
:10304000284601EB592198F83080FFF73BFC002817
:10305000C3D1C9F30809A94499F8303048EA0328D4
:10306000E3074CBF4FEA1814C8F30B04CDE77A69A5
:10307000A11E023A9142B3D2FA6A01FB032387E709
:103080002DE9F04F0446D0F800C085B08B4611F80A
:10309000013B2F2BFAD05C2BF8D00022A2609BF8CA
:1030A00000201F2A40F235814FF020395E4604F19E
:1030B0002008CDF808C0C8F80490C8F80090C8F8F7
:1030C00007903778202F38D900254FF0080B4FF0A4
:1030D000010A2B462F2F4AD05C2F48D02E2F31D0FB
:1030E0005D452AD2802F35D99F2F1CD9DF2F01D9DA
:1030F000FC2F18D93946924808F056F8E8B95346DB
:1031000008F805700135F75C03F1010A202FE1D8BA
:1031100094F820305644E52B02D1052384F8203062
:10312000042300933BE016F80A203F2A05D97E2AA3
:103130005CD982F080017C2958D90626304605B03A
:10314000BDE8F08FBBF10B0FF7D0534608254FF0C9
:103150000B0BD8E739467A4808F026F80028ECD15E
:10316000A7F16103192B9CBF203FFFB2C7E7B24410
:103170009AF8003056462F2B0AF1010AF8D05C2B42
:10318000F6D0002DD9D094F82030E52B00F0CA807D
:103190003378202B8CBF002301239B000093204613
:1031A00084F82B30D4F800A0FFF7E4FE002840F0AC
:1031B000C180A7690AF1300B0196DAF81C2097420A
:1031C00022D09AF804309AF80100002B6AD101232A
:1031D0003A46594601F072F9A0B14FF0FF33CAF8F0
:1031E0001C300126304605B0BDE8F08F0BF1FF31F1
:1031F000A942A2D9691C08F80570023308F8012019
:10320000023580E7CAF81C70E0690378ABB1C77A71
:1032100007F03F03A371C57A15F0080505D10B220D
:10322000414608F085F800285CD0256923682035E0
:10323000B5F5001F06D30023A361009B002B77D1B7
:1032400005267BE7A769002FF7D0C5F308063EB92E
:1032500061690137A76141B91989B1EB551FEAD9F5
:10326000303333442561E361A7E75889013810EA18
:103270005520F5D118460393FFF7DCFB012846D90A
:10328000421CAED0039B59698842D4D20239606196
:10329000023888422FBF37465989DF6A00FB017721
:1032A000A761DDE70123594601F00EF9002898D106
:1032B000DAF81C10DAF82430DAF81820CB1A934226
:1032C0008AF804009AF8010081D29AF80330022BA0
:1032D0007FF47DAF0A440123594601F0F5F89AF8CE
:1032E000010074E7DDE9003603BBFB06A8D50299AF
:1032F000226901F130030978C2F30802134403295B
:103300005A8B04BF9B8A42EA0342A260D3E602269C
:1033100014E78023204684F82B3005B0BDE8F04F39
:10332000FFF728BE052384F8203031E72E4605E755
:10333000042603E7042806467FF400AF7DE700BFBC
:10334000C0B800102DE9F84F05468946066811BB44
:10335000D6E90383B8F1000F08D11BB17369022BC2
:1033600000F2E58000242046BDE8F88F72694245EE
:10337000F3D9002BF6D008F10104A24264D8B8F1C9
:10338000010FEFD002242F687B69A34260D801248B
:103390002046BDE8F88F3046FFF74CFB0128044675
:1033A000F5D9411C35D073698342DCD83269002AD3
:1033B000D8D009F10107BB428CBF3C4602242868E3
:1033C0002146FFF737FB0128E1D0421C21D0736969
:1033D000002840F08E80002C00F09280A342D6D9C5
:1033E0004FF0FF3221463046FFF79EFA78B9B9F127
:1033F000000F5DD0B9F1010FC9D073699945C6D2EC
:10340000224649463046FFF78FFA002850D001285F
:10341000BDD14FF0FF34A6E7796A384601EBD411ED
:10342000FFF750FA0028F4D1A30003F4FE733B44E5
:103430001B6B33F070436CD0012BA8D0A04591D00A
:10344000736901349C429AD22F687B69A3429ED94A
:103450003B78022B3DD0032BDED0012B97D1796A2C
:1034600004EB540A384601EB5A21FFF72BFA0028E7
:10347000CFD1796A0AF1010BCAF3080ABA44384677
:1034800001EB5B219AF830A0FFF71CFA0028C0D1AD
:10349000CBF3080BBB449BF830304AEA032AE3071E
:1034A00033D55FEA1A1A34D0BAF1010FC6D16EE7EC
:1034B0003369F460002B3FF456AF7269023A9342CD
:1034C0003FF651AF7279013B42F0010233617271F4
:1034D00049E7796A384601EB1421FFF7F3F9002830
:1034E00097D1630003F4FF733B441B8E002BA3D1E1
:1034F0000FE0D6F80C80B8F1010F01D9984510D330
:103500009F423C4607D3C84639E7CAF30B03002B5A
:1035100092D1736962E7012C2F687FF638AFC846F5
:1035200093E708F101049C42BFF42CAF8CE74FF005
:103530000108022488E700BF2DE9F04F87B0044658
:103540000768FFF717FD002840F0A180D4F818A005
:1035500007F1300BFA69924513D03B797878002B4C
:103560007BD101235246594600F0A8FF38B14FF0F5
:10357000FF33FB610125284607B0BDE8F08FC7F88F
:103580001CA0E3691B78E52B00D0D3B93846A169AC
:10359000FFF798F905460028EDD12946E069202279
:1035A00007F0B2FEE369203403CC1860596020882C
:1035B000A17801221881284699723A7107B0BDE8B6
:1035C000F08F2569D4F800802035B5F5001F03D3AE
:1035D0000023A3610725CEE7D4F818A0BAF1000FA5
:1035E000F8D0C5F3080656B961690AF10103A36171
:1035F00059B9B8F80820B2EB551F4FD99A4608F1CF
:1036000030094E442561E661A4E7B8F80A20013A82
:1036100012EA55220192F1D14046FFF70BFA012838
:10362000824640F28E80B0F1FF3FA3D0D8F814203C
:10363000904235D2023A831E08F130099342C4F811
:1036400014A006D2B8F80A20D8F82C1003FB0213F5
:103650000193019B9A46A361D3E70123594600F0E9
:1036600033FF002886D1F9697B6ABA69CB1A934285
:1036700038717878BFF475AFFB78022B7FF471AFA7
:103680000A440123594600F01FFF787869E70428AF
:1036900005469FD0284607B0BDE8F08FA16199E7A5
:1036A00020466169FFF74EFE8246002892D001282D
:1036B00047D0B0F1FF3F3FF45DAF98F8043008F118
:1036C0003009002B3FD1D8F814309A1EAAF102031A
:1036D00093425FD2B8F80A10D8F82C20484603FB72
:1036E000012200210292C8F81C204FF400720393BB
:1036F00007F00AFEB8F80A20039B002A5AD00022DD
:10370000CDE903730595029F154604E0B8F80A2039
:103710000135954239D20123494698F801007A19BA
:1037200000F0D2FE0028F1D02946DDE90373059DA3
:10373000B8F80A2091427FF41DAFD8F81420023A5D
:103740007CE7022517E701234946D8F81C2098F8A2
:10375000010000F0B9FE00287FF40CAFD8F81C106F
:10376000D8F82430D8F81820CB1A934288F80400EF
:10377000A9D298F80330022BA5D10A440123494667
:1037800098F8010000F0A0FE9DE72946DDE90373EB
:10379000059DCFE700214FF40072C8F81C10484681
:1037A000029307F0B1FDB8F80A200021029B22B174
:1037B0000291A4E7C4F814A046E7C4F814A048E7AF
:1037C00001292DE9F84F0C4605680AD96B698B422F
:1037D00007D9064611463AB92F464FF001089C42D8
:1037E00010D30220BDE8F88F012AFAD09342F8D90D
:1037F0004FF0FF322846FFF797F80028F2D13768DC
:103800007B69EAE73B78022B00F09080032B0FD016
:10381000012BE6D1796A04EB5409384601EB5921B2
:10382000FFF750F8002800F0A9800120BDE8F88FCC
:10383000796A384601EBD411FFF744F80028F4D137
:10384000A30003F4FE733B44D3F8309039F0704981
:1038500000F0B180B9F1010FC3D06B699C42C0D2B6
:103860002F78022F53D0032F29D0012FB9D1696AA5
:1038700004EB540A284601EB5A21FFF723F80028ED
:10388000B0D10AF1010BE107CAF308034FEA5B224A
:1038900005F1300A5DD51AF80310284601F00F0132
:1038A0000AF80310696A2F711144FFF70BF800281A
:1038B00098D1CBF3080B0AEB0B03187014E0696A7C
:1038C000284601EBD411FEF7FDFF00288AD1A400A1
:1038D00004F4FE7405F13002115910530B0E22440A
:1038E00003F0F0039070D3706A692B69911E8B42CC
:1038F00085F8048005D201332B616B7943F0010315
:103900006B714A4557D937684C467B6967E7696AE6
:10391000284601EB1421FEF7D5FF00287FF462AFA3
:10392000640004F4FF742C442086DDE7796A38468D
:1039300001EB1421FEF7C6FF00287FF476AF630089
:1039400003F4FF733B44B3F83090B9F1000F81D119
:1039500031E00AF80300696A28462F711144FEF726
:10396000B1FF00287FF43EAFCBF3080B1AF80B0031
:103970000AEB0B0300F0F0001870B5E7796A09F163
:10398000010AC9F30809B944384601EB5A2199F8EC
:103990003090FEF797FF00287FF447AFCAF3080A7C
:1039A000BA449AF83030E00749EA032905D55FEABE
:1039B00019197FF44FAF002014E7C9F30B09B9F1CF
:1039C000000F7FF447AFF6E700B583B0CDE90010F4
:1039D00029B38C4601E03A2B1BD01CF8013B202B6D
:1039E000F9D810490B6813B1002008601870019BCA
:1039F00013B100200B6018801AB9104603B05DF8AF
:103A000004FB0022684601A9FFF774F903B05DF8D2
:103A100004FB0B78302B02D102318C45E1D00B2016
:103A2000ECE700BF001100202DE9F0478EB00191B6
:103A300000287BD002F03F070446164602A93A460A
:103A400001A8FFF757F9054628B10023236028464F
:103A50000EB0BDE8F087DDF808800199C4F8008059
:103A600003A8CDF80C80FFF70BFB80B99DF9373028
:103A7000002B60DB16F01C0F10D070075DD49DF892
:103A8000123013F0110F00F089800725DDE716F0E2
:103A90001C0F01D0042854D00546D6E79DF81230FB
:103AA000DA064CD4B00701D5D907EED40021D8F8F6
:103AB0001C3004F1280A23620A9B5046636298F87E
:103AC00000205E8B032A04BF9A8A46EA0246A6605B
:103AD000D3F81C90B8F806304FF40072C4F80C907C
:103AE000A38027746174E161616107F00DFCBA067F
:103AF000ADD5B9F1000FAAD0B8F80A30C4F81490C7
:103B0000B9EB432F4FEA432704D84AE0431C7ED049
:103B10004F4546D231462068FEF78CFF0128064605
:103B2000A9EB0709F2D8A06102258EE709252846EE
:103B30000EB0BDE8F087062587E7082585E7042550
:103B400083E703A8FFF7F8FC0028A5D147F0080792
:103B5000FEF77EFA0A9BC3F80E000A9BC3F8160014
:103B600098F800200A9B032A08BF9A8A5E8B08BF38
:103B700046EA02462022DA7200220A9B5A8398F80B
:103B80000010032908BF9A82002201230A99CA6102
:103B900088F804303EBB47F0400787E7310785D5FA
:103BA000D6E7C9F30803A661002B3FF450AFD8F85D
:103BB0001430023E023B9E42B6D2B8F80A20D8F832
:103BC0002C3006FB0232002AAED002EB5922E26111
:103BD0005146012398F8010000F070FC00283FF4E2
:103BE00036AF012531E7314603A8D8F81C90FFF71E
:103BF000E7FD00287FF450AF49464046FEF762FEDD
:103C0000013EC8F80C600028C5D005461DE7A0613C
:103C1000E7E700BF2DE9F04F002583B01D6058B1E4
:103C20001E46036804463BB191461A7822B1884685
:103C3000DA888188914203D0092003B0BDE8F08F73
:103C4000587800F02DFCC207F6D4607C0028F4D12F
:103C5000237C13F0010500F092806369E768D4F8D3
:103C600000A0FF1A4F4528BF4F46002FE5D0009017
:103C7000C3F30802002A50D1BAF80A20013A12EA26
:103C8000532236D0A069DAF814300238023B984249
:103C90003DD2BAF80A10DAF82C3001FB0033002BC1
:103CA00035D0B7F5007F02EB030943D302EB572071
:103CB00088424FEA572B88BFA1EB020B5B464A466E
:103CC00041469AF8010000F0F9FB00284AD194F926
:103CD0001020002A66DB4FEA4B293368B7EB09074F
:103CE0004B4433606369C8444B446361C0D100985E
:103CF000A3E7002B3CD1A068012808D9431C31D090
:103D0000DAF81430A061023B02389842C1D3022392
:103D10001846637403B0BDE8F08F04F12801C2F5C2
:103D20000079B94528BFB946114440464A4607F0D4
:103D3000EFFAD2E7E2694A4523D094F910309AF8B5
:103D40000100002B04F128011EDB01234A460191EA
:103D500000F0B4FB019928B96269C4F81C90C2F361
:103D60000802DCE701232846637403B0BDE8F08F46
:103D7000A16920680192FEF75DFE019ABCE7072069
:103D80005BE704F12801E7E70123019100F09CFBC8
:103D90000028E7D1237C019903F07F0323749AF86C
:103DA0000100D2E7E069A0EB0900584593D24FF437
:103DB000007208EB402004F1280107F0A9FA8AE715
:103DC0002DE9F04F002583B01D6058B11F460368F0
:103DD00004463BB116461A7822B18846DA888188B3
:103DE000914205D04FF00909484603B0BDE8F08F75
:103DF000587800F055FBC107F4D494F81190B9F14C
:103E0000000FF1D1237C9A0740F1A6806269D4F8B3
:103E100000A0F24228BFD643002E56D0C2F30805B8
:103E2000002D56D1BAF80AB00BF1FF3B1BEA522B1A
:103E30000ED1002A40F08880A068002800F08F8012
:103E4000012858D0431C78D0A368A06103B9A060B2
:103E500094F91030002B62DBA369DAF81420023BDE
:103E6000023A934247D2BAF80A20DAF82C5002FB01
:103E70000355002D3FD0B6F5007F5D4442D30BEBD8
:103E8000562191424FEA5623414688BFA2EB0B03CD
:103E90009AF801002A46019300F016FB00284CD145
:103EA000E169019B491B99426FD35D026269E36836
:103EB0002A44934238BF13463968761B2944396037
:103EC000A8446261E360A9D1237C43F040032374DA
:103ED0008AE704F1280B0BEB0500C5F50075B54228
:103EE00028BF354641462A4607F012FA237C63F084
:103EF0007F032374DAE7022399464846637403B0CC
:103F0000BDE8F08FE2696369AA4230D0E26804F14B
:103F1000280B9A422ED8E561C3F30805DBE701239D
:103F2000E2699AF8010004F1280100F0CDFA20B905
:103F3000237C03F07F0323748EE7012399464846D0
:103F4000637403B0BDE8F08F2046A169FFF7FAF96A
:103F500000287FF475AFB7E74FF0070944E75946EB
:103F60002046FFF7EFF900287FF46AAFACE704F1D1
:103F7000280BD0E701232A4659469AF8010000F0A1
:103F80009DFA0028D9D16369C5E74FF4007208EBA8
:103F9000412104F1280007F0BBF9227C019B02F0CB
:103FA0007F02227481E700BF58B1036870B50446F0
:103FB0002BB11A781AB18188DA88914203D009208E
:103FC00070BD09207047587800F06AFAC107F6D42E
:103FD000237C25685A062DD51B063CD42846216A29
:103FE000FEF770FC0028EBD1666AF37A43F02003F9
:103FF000F372A3682268C3F30721B376F1761278CF
:10400000032A03D11B0C1A0A33757275E368F36136
:10401000FEF71EF801230022C6F816007282284619
:104020002B71FEF7F9FB237C23F040032374002857
:10403000C6D12568002DC2D02B78002BBFD0A28816
:10404000EB889A42BBD1687800F02AFA10F00100A0
:10405000B5D1206070BD0123E269687804F12801C0
:1040600000F032FA20B9237C03F07F032374B5E714
:10407000012070BD30B585B0019100282FD00446D5
:10408000002203A901A8FEF735FE18B10023236022
:1040900005B030BD039D204601992560FEF7F0FF75
:1040A000C8B994F92B30002B0BDBA379DB0614D5B0
:1040B0002978E2690329538B04BF928A43EA0243B9
:1040C000A360EB882046A380FEF754FF042804D0A9
:1040D0000028DDD0DAE70428D8D10520D6E709206A
:1040E00005B030BD98B1036810B504462BB11A78FD
:1040F0001AB18188DA88914201D0092010BD587820
:1041000000F0CEF910F00100F7D1206010BD0920B9
:10411000704700BF2DE9F0410D4682B040B1036801
:1041200004462BB11A781AB18188DA88914206D0F8
:1041300009200DB100236B7202B0BDE8F081587800
:1041400000F0AEF910F00103F2D12046002D41D06D
:104150006B72FEF7C5FC10F0FB03EBD16B72D4F869
:104160001880B8F1000F3AD02946E069FEF7A4FAAA
:10417000266927682036B6F5001F35D2C6F3080237
:1041800002BB616908F10103A36181B37B89013B33
:1041900013EA562816D138460192FEF74BFC012847
:1041A0002CD9431C28D07B6998421DD2023B606108
:1041B00002389842019A03D27989FB6A00FB0138E0
:1041C000C4F81880303717442661E761002002B038
:1041D000BDE8F08102B0BDE8F041FEF7CBBE236937
:1041E0002033B3F5001FF1D30023A361EEE73B8931
:1041F000B3EB561FE6D8F7E701209BE7022099E7CB
:1042000030B58FB00D460190002203A901A8FEF73A
:1042100071FD30B104460DB100236B7220460FB022
:1042200030BD019903A8FEF72BFF04460028F2D108
:104230009DF93730002B0ADB002DEFD0099B687207
:10424000002BEBD029460A98FEF736FAE6E706245B
:10425000002DE1D1E2E700BF2DE9F04F93B00190CE
:10426000022202A901A8FEF745FD044618B1204626
:1042700013B0BDE8F08F029B0546019907A807938C
:10428000FEF7FEFE044650B99DF8473013F0A00F2C
:104290000CBF08240624204613B0BDE8F08F042884
:1042A000E5D1029B294603A80393FFF74BF8064686
:1042B00040B9FDF7CDFE07240022314603A8FFF7E1
:1042C0007FFAD4E7012800F09B80431C03D1FDF75F
:1042D000BFFE0124F0E7FDF7BBFE029D07462B79E8
:1042E00005F13009002B40F08F806B69B21E023B54
:1042F0009A422EBF4FF000086989EB6A484638BFE2
:1043000002FB01384FF400720021C5F81C8006F052
:10431000FBFF6B8900241BB90EE001349C4209D2DB
:1043200001234946687808EB040200F0CDF86B8958
:104330000028F2D09C42CCD14FF02032029B1021B9
:104340002E20C3F83120C3F83520A3F839201A46AF
:10435000F5B2C6F3072883F83B10C3F8467083F81C
:10436000300083F84A5083F84B8012F8504B09997B
:10437000032CC1F3072E5FFA81F961D0D3F830A086
:10438000D3F834C09C6BD96BC3F850A0C2F804C0FA
:104390009460D160D3F840A0D3F844C09C6CD96C31
:1043A000C2F810A0C2F814C09461D16183F8510022
:1043B00083F86A9083F86BE0012207A81A71FFF76F
:1043C000BBF8044600287FF477AF0E9B0298C3F831
:1043D0000E700E9BC3F816700E9B9D7683F81B80A3
:1043E0000278032A03D1360C320A1E755A75102141
:1043F00001230E9AD1720371FEF70EFA044636E7D6
:10440000FDF726FE022457E701234946EA6968784A
:1044100000F05AF800287FF45CAFE9696B6AAA697A
:10442000CB1A93422871BFF460AFEB78022B7FF474
:104430005CAF0A4401234946687800F045F854E728
:104440001C6BD3F834B01C65D3F838A0D3F83CC04B
:10445000340C83F84440240A83F84540C2F804B081
:10446000C2F808A0C2F80CC01C6CD3F844B0D3F852
:1044700048A0D3F84CC0090C1461C2F814B0C2F8BB
:1044800018A0C2F81CC083F86410090A83F8510010
:1044900083F86A9083F86BE083F865108CE700BFBF
:1044A000003818BF0120704708B10120704710B5CF
:1044B0000446FCF793F8204610BD00BF003818BF33
:1044C00001208000704700BF003818BF0120800025
:1044D000704700BF50B902290AD001D800207047A8
:1044E000032903D101230020136070470420704783
:1044F0004FF400731380F1E710B44FF480740C4B49
:1045000053F8202003EB8003C00082F0400200F14A
:10451000804003F5805C02F0C00200F5203003F516
:104520004053CCF8002041601C605DF8044B70479C
:104530000480034010B4084CC90041EA820154F8D9
:10454000202004EB8003514003F5805301F00C015F
:104550005DF8044B1960704704800340064B53F824
:10456000202003EB800382EA011202F0300203F5FF
:1045700080531A60704700BF0480034030B44FF08E
:10458000000343EC440043EC400005254FF48074E5
:104590000B4BC20053F8201003EB800081F0400168
:1045A00002F1804303F5203301F0C00200F5805191
:1045B00000F540500A605D60046030BC704700BF89
:1045C000048003400FB400B583B0049C074803F097
:1045D00039FD3CB105A92046019103F0A5FB044833
:1045E00003F030FD012003F0B7FB00BFD0B800108E
:1045F00040B7001070B58646EFF3108572B6124CC6
:10460000D4E8CF6F0120002EFAD1C4E8460F002E67
:10461000F6D1BFF35F8F4FF0010CC80801F007031C
:104620000CFA03F31EF800C01CEA030608D14CEA9A
:10463000030C0EF800C0C4E88F6F85F3108870BDBE
:104640001046FFF7BFFF00BFAF120020F8B5EFF331
:10465000108572B6234CD4E8CF7F0126002FFAD103
:10466000C4E8476F002FF6D1BFF35F8F9A4227D877
:104670000126D70810F807E002F0070C06FA0CFC38
:104680001EEA0C0F00EBD2070DD125E04FEAD20E47
:1046900010F80EE002F0070C06FA0CFC1EEA0C0FF4
:1046A00000EBD20718D001329342EFD24FF0FF3027
:1046B0000023C4E88F3F85F31088984207DBF8BDDC
:1046C0000023C4E88F3F85F310884FF0FF300029A6
:1046D000F5D00698FFF776FF4EEA0C0E104687F8E5
:1046E00000E0E5E7AF120020044A1078431CDBB27B
:1046F000182B28BF10231370704700BF7F0E0020B7
:1047000010B5054C82B001461F23182200940348BF
:10471000FFF79CFF02B010BDE0B80010201400208D
:104720004FF0E022936843F000539360704700BF5E
:104730000021044B03F12002C3E88F1F0133934291
:10474000FAD17047A41200204FF0E0234FF08032DE
:10475000C3F80024C3F80424C3F80824C3F80C24C5
:10476000C3F81024C3F81424C3F81824C3F81C2475
:10477000C3F82024C3F82424C3F82824C3F82C2425
:10478000C3F8302462B67047012300F01F02934043
:10479000400941B1800000F1604000F56140C0F87F
:1047A000803103607047024A203042F82030704761
:1047B00000E100E00123064A410952F8212000F0FF
:1047C0001F008340134214BF01200020704700BF28
:1047D00000E100E001224309034900F01F0082408C
:1047E000403341F82320704700E100E0054A1030D3
:1047F0009268054B52F82000C01A47288CBF002051
:104800000120704700ED00E0800E002010B5EFF3AE
:10481000108C72B6114BD3E8CF4F0122002CFAD185
:10482000C3E8442F002CF6D1BFF35F8F0C4A103041
:1048300092680C4C52F82020A24201D091420BD138
:10484000074A926842F82010BFF35F8F0022C3E846
:104850008F2F8CF3108810BD01F036F9AD120020B7
:1048600000ED00E0110100102DE9F04F0B4683B080
:10487000EFF3108A72B6DFF8AC91D9E8CF4F01217F
:10488000002CFAD1C9E8441F002CF6D1BFF35F8F8A
:104890005D4991F90080B8F1000FC0F2B2805B4C25
:1048A00008EB480704EB8705AE7910300E705849C5
:1048B0004FEA48068968009651F82010BF000E1B89
:1048C000472E34D821F0010E9EF80760964209D891
:1048D00071E00CEB4C0604EB860696F807B09345A6
:1048E0004ED9B6469EF906C0BCF1000FF1DA4BF680
:1048F00001560EF1040B043DA5EB0B05C5F34A056B
:104900006FEAC545009F6FEAD5454744BB468EF820
:104910000680DFF80C8104EB8707AEF8045044F8FA
:104920002B80BE8087F806C0FA71BB601AE0394E52
:10493000B14266D1AB60384BEA71BA1C2244043BE9
:104940009B1AC3F34A036FEAC3434FF421426FEA51
:10495000D343E2536B80FF224BF60153AA71AB8025
:1049600045F001012A4B9B6843F82010BFF35F8F8D
:104970000023C9E88F3F8AF3108803B0BDE8F08FA9
:10498000F3463BF8046F76050FD4761502360BEB31
:10499000460601966FF00706F61B019F361B3E4444
:1049A000C6F34A0646F46046A5E706F5FF1606F587
:1049B000FF561F36E9E7AB606FF00703EA714FF46B
:1049C0002142DB1B1B1B7344E253C3F34A02124B0D
:1049D000124E02372744043B3243DB1BAA80C3F349
:1049E0004A030F4A33436B804AF6AA2173461B1BC6
:1049F0005B415943090DA971CEF8002045F0010132
:104A0000B0E701F061F800BF1E240020800E0020F6
:104A100000ED00E011010010C80E002000E0FFFFD3
:104A200001488047AD1200202DE9F84FEFF31087C1
:104A300072B6734CD4E8CF2F0123002AFAD1C4E810
:104A4000423F002AF6D1BFF35F8F6E4B00F1100E8C
:104A50009B68DFF8C0B153F82E205A453CD08A42FB
:104A600047D0694D531B472B36D84FF0010C4609F0
:104A7000B60006F1604606F5614600F01F030CFA29
:104A800003F03368C6F8800000EA0308BFF35F8FC5
:104A9000EFF30583DBB299466BB39E4540F0AD80E2
:104AA00022F0010CDCF808A0514509D18FE003EB9E
:104AB000430305EB8303D3F808A051452CD09C4653
:104AC0009CF90630002BF2DA514563D0B8F1000FA3
:104AD0001FD0C6F8800130604A4B9B6843F82E20F7
:104AE000BFF35F8F0023C4E88F3F87F31088BDE8D2
:104AF000F88F5A46F0E722F0010CDCF808A0514587
:104B0000DED19CF906A06346BAF1000F09DA5A46D5
:104B10004BE0C6F88000DFE793F906A0BAF1000F7A
:104B200039DB0AEB4A0905EB8909D9F808104FEA85
:104B30004A0C996099F80710D97199F90610002963
:104B4000997141DBB9F80410490504D501F5FF114D
:104B500001F5FF511F31491501F102094FF0040B16
:104B60000C2111FB0AB101EB49016FF0070929443F
:104B7000A9EB03094944C1F34A0141F4604199801A
:104B8000224BD444197805EB8C0C83F800A08CF8E8
:104B900006109BE76346B9F1000F1ED1FF218CF888
:104BA00006104BF60151ACF80410DFF860904AF69D
:104BB000AA2199F800A083F806A05B1B5B4159432A
:104BC000090D89F8001081E74BF60151D7E79CF9F0
:104BD00006A06346BAF1000FA3DA0D49DFF838C02A
:104BE000C91A0839C1F30A356FEA05556FEA155538
:104BF0004CEA5101D9809D8068E700F065FF00BF55
:104C0000AD12002000ED00E0800E00201E240020E8
:104C1000D20E00201101001000F8FFFFF0B5EFF3F5
:104C20000585EDB2EFF3108C72B62C49D1E8CF2F89
:104C30000123002AFAD1C1E8423F002AF6D1BFF38E
:104C40005F8F274E40F0010EB4684AF6AA2354F84D
:104C50002570244A0446A41A644163431B0D77451A
:104C60005BB223D092F906409C4224D092F91240C4
:104C70009C422BD092F91E409C4229D092F92A40A6
:104C80009C4227D092F936409C4225D092F942406E
:104C90009C4208BF05240FD0134A002415781370D6
:104CA0008571C1E88F4F8CF31088F0BDB2680F4C4E
:104CB00042F82540F0E7002404EB440402EB8402B0
:104CC000FF2494714BF601549480E5E70124F3E747
:104CD0000224F1E70324EFE70424EDE7AD120020FE
:104CE00000ED00E0800E00201E24002011010010C5
:104CF00010B5074C82B001460523002200940548F8
:104D0000FFF7A4FC0028A8BFC0F1330002B010BD1B
:104D1000FCB8001023240020014B0B4403607047B3
:104D2000A412002070B5104C104DAC420ED2FF26DC
:104D3000236863B1FFF7D8FC01462046FFF7ECFF7C
:104D4000A680BFF35F8F0834AC42F1D370BDFFF78C
:104D5000CBFC01462046FFF7DFFF2671BFF35F8FD4
:104D60000834AC42E4D370BD5C0F0020640F002017
:104D700010B50446FFF7B8FC01462046FFF7CCFF0C
:104D8000FF232371BFF35F8F10BD00BF10B5044632
:104D90000120FFF7B5FC034B03442360BFF35F8F93
:104DA00010BD00BFA4120020024B0B440360BFF3F0
:104DB0005F8F7047A412002010490B68EFF310803A
:104DC00072B6D3E8CFCF0122BCF1000FF9D1C3E80E
:104DD0004C2FBCF1000FF4D1BFF35F8F084A4FF0A6
:104DE000000C137809680133DBB21370C1E88FCF70
:104DF00080F3108840BF002000217047F02300207E
:104E000020240020000000002DE9F04F2DED028B42
:104E100085B0EFF30583DBB2103B9A0818BF01227F
:104E20004FF0010103F0030018BFAF4DAF4B08BFB7
:104E3000AF4D00EB820253F8226001FA00FB05F54A
:104E400041539FEDA78B0190C3F804B02EE0B388C7
:104E5000180440F19280B379002B40F0DC80B6F961
:104E600008100029C0F21D81736901EB410103EBB9
:104E7000C103D3E90247B7F1FF3F08BFB4F1FF3FD9
:104E80000DD0019B05EB8301AB6A0A69D21AE31AC4
:104E9000934203D32B6A13EA0B0F00D10C6128460F
:104EA00000F0BEFBA042B941C0F2FB80B6F9083069
:104EB000C5F83CB0002B0093C9DBD6F8149003EB87
:104EC000430A284609EBCA07D7E9024800F0A8FBC5
:104ED000A04271EB0801BADBB8F1000FC0F2C38049
:104EE000D7E90431834A934200F0ED807A88B6F91D
:104EF000080092B242EA0040984702460B4652EA46
:104F0000030100F0B080002B80F2D180B4EB020EE0
:104F100068EB030839F93A30C7E902E8002B96DB61
:104F2000716903EB430201EBC202D2E90270BE4594
:104F300078EB000C4FEA430289DBB4462CF8083FBB
:104F40000BE031F93230A446002B0DDB03EB4300BC
:104F500001EBC0005A00D0E90270BE451A4478EB5C
:104F6000000001EBC204ECDA29F83A30009BACF8FF
:104F70000030B38818043FF56EAF3369EFF3108249
:104F800072B6D3E8CF0F01210028FAD1C3E8401F41
:104F90000028F6D1BFF35F8F4FF6FF74B08800236F
:104FA000316900B2B480C1E88F3F82F31088984223
:104FB000FFF651AF0746A946746906F1080807EBEA
:104FC000470E04EBCE03D3E90250B6F90830C446CD
:104FD000002B13DBB246009704E034F936309446D8
:104FE000002B09DB03EB430604EBC602D2E9027196
:104FF000BD4270EB0101F0DA5646009FACF800703C
:1050000034F93E7024F83E30002FD8DAB3794D469B
:10501000002B3FF424AF0023B371B6F9083006F13A
:105020000808591C3DD01946776903E080465A1C90
:105030003FF417AF03EB430207EBC200B0F802C026
:105040001C461CF4004F9E4637F93230EED08C429D
:1050500080ED028B05D0A8F80030318927F8321096
:1050600034817146E3E739F83A3033813369EFF33D
:10507000108272B6D3E8CF0F01210028FAD1C3E81D
:10508000401F0028F6D1BFF35F8F7388316929F87C
:105090003A30009B73800023C1E88F3F82F3108871
:1050A000D5E640BF05B0BDEC028BBDE8F08F2846C9
:1050B000CDE9022300F0B4FA029A039B10EB020E32
:1050C00043EB010826E708460B6902919847002840
:1050D000C9D00299D1E9002311E700BFAFF30080E6
:1050E000FFFFFFFFFFFFFFFF00800B40781B00204A
:1050F00000000B40094E00102DE9F84F364C256991
:105100002DB1BDE8F84F0A213448FFF705BEDFF89E
:10511000E4800321404600F071FA0326C4F80C80B5
:10512000FFF7E2FA4FF0504C2D4B267003442361F9
:10513000DCF800300F216370636961801D834FF0DC
:105140000405A3F878504FF00505A3F890504FF0F0
:105150000605A3F8A8504FF007050E214FF6FF7281
:1051600008274FF00A0EA3F8C0504FF001094FF086
:105170000C0C4FF0020B4FF0090A0D204FF00B05FD
:10518000A3F868111749A280A3F808E1A160A3F869
:1051900048B0A3F8F0A0A3F82051A3F838C1A3F8B1
:1051A0005001A3F83090A3F86060A3F8D8701A807B
:1051B0000D4B3046C8F820700C49DC60FFF726FB29
:1051C00049463046FFF7E0FA094B0A211F640348BD
:1051D000BDE8F84FFFF7A0BDE80E0020F023002047
:1051E000A4120020FFFF1000781B0020094E0010C1
:1051F00000200B4000000B4000487047E80E0020E4
:10520000F8B59DF82070044616461D4637B900F0E3
:105210000FFA864265EB010100295CDB2369EFF39D
:10522000108772B6D3E8CF1F01220029FAD1C3E854
:10523000412F0029F6D1BFF35F8FB4F902C0636933
:105240000CEB4C01BCF1000F4FEAC10203EBC101B2
:1052500038DB985A4FF0000E60802069C0E88FEF6D
:1052600087F310880698C1E90265086107984861CC
:1052700048880130C0F30E00012838BF0120488063
:1052800040EA0C402169EFF3108572B6D1E8CF7F78
:105290000126002FFAD1C1E8476F002FF6D1BFF3E6
:1052A0005F8FA1889952A4F804C02369C3E88FEFE7
:1052B00085F310880122E368217803F501538A40C1
:1052C0005A60F8BD00232269C2E88F3F87F3108837
:1052D0004FF0FF30F8BD3846F8BD00BF0146F0B5CD
:1052E0000069EFF3108772B6D0E8CF5F0124002D7C
:1052F000FAD1C0E8454F002DF6D1BFF35F8FB1F969
:1053000002E04C690EEB4E0CBEF1000F4FEACC05EB
:1053100004EBCC0C3DDB605B002648800869C0E8EC
:105320008F6F87F31088BCF80200CCE902230130AC
:10533000C0F30E00012838BF0120059BACF8020025
:10534000CCF81030069B40EA0E40CCF814300B69C4
:10535000EFF3108272B6D3E8CFCF0127BCF1000F74
:10536000F9D1C3E84C7FBCF1000FF4D1BFF35F8FDC
:105370008B886353A1F804E00B69C3E88F6F82F355
:1053800010880122CB68097803F501538A405A60DE
:10539000F0BD00230A69C2E88F3F87F310884FF001
:1053A000FF30F0BD03464089B0EB214F37DD58692F
:1053B0000A1402EB420210B500EBC2001C69EFF3C5
:1053C000108C72B6D4E8CFEF0122BEF1000FF9D1F4
:1053D000C4E84E2FBEF1000FF4D1BFF35F8F4288B7
:1053E00089B292B28A4207D000221B69C3E88F2F8C
:1053F0008CF31088002010BD42F40042428001214D
:10540000002218699971C0E88F2F8CF310881C78DE
:10541000DA68084602F50153A140596010BD00202A
:10542000704700BF407870472DE9F043871F41F176
:10543000FF35B84271EB050338BF002783B038BF92
:105440003D4604460E4600F0F3F8381A65EB0103BA
:10545000012873F1000306DA2046314603B0BDE8A7
:10546000F04300F021B900F0E3F8874265EB010159
:1054700000290ADB00211C4B3A4600931B482B46AF
:105480000191FFF72BFF0028E6DB4FF0000EDFF85D
:1054900068C01749174ADCF824309D4205D8DCF86B
:1054A0002800B842D8D29D42D6D10B68EFF31088BD
:1054B00072B6D3E8CF9F0120B9F1000FF9D1C3E84C
:1054C000490FB9F1000FF4D1BFF35F8F10780B686B
:1054D000C0B2C3E88FEF88F310881378834200D1FD
:1054E00020BF20BFD7E700BFB94D0010E80E002055
:1054F000F02300202024002000000B4010B50446BB
:1055000000F096F84FF47A734FF0FF3C6FF00042D2
:10551000E4FB0301BDE81040844572EB01033CBF8E
:1055200060461146FFF780BF2DE9F04705460C465F
:1055300082B0EFF30587FFB2002F38D12B4ED6E9AA
:1055400000238B4208BF824239D0DFF8AC80D8F804
:105550000CA098F80090504600F062F809F1040998
:105560005AF829301B1A281A64EB0101984271F18C
:10557000000124DA00F05CF8854264EB01010029A7
:1055800015DB1B4B404600932A4623460197FFF745
:10559000A5FE011E0BDD174BC6E900545A6AA24254
:1055A00021D39B6AAB421CD31348FFF7FBFE114B80
:1055B000586AA04208D2002002B0BDE8F08720BFA0
:1055C0000C4B586AA042F6D39B6AAB4203D301202E
:1055D00002B0BDE8F087001B18BF012002B0BDE893
:1055E000F087A242E0D120BFDEE700BFE00E00203E
:1055F000B94D001000000B40E80E002010B4054B20
:10560000054C064AA04214BF1846581C5DF8044BCE
:10561000FEF7F0BF2414002000800B4018B90010E2
:105620000346416A0A46986A596A8A42FAD1704723
:10563000034B596A0A46986A596A9142FAD17047EF
:1056400000000B4010B4174A536A9C46946A536A90
:105650006345FAD1001959414FF0000228BF0122D9
:105660000346CAB10F4B596A4B1C08BF0B4608D002
:105670004FF0FF310B460B48426A8A42FCD38A4204
:1056800007D1084A02E0506A884202D1906A9842E3
:10569000F9D35DF8044B7047024A526A9142EAD846
:1056A000EDE700BF00000B40074A536A9942FCD85F
:1056B000994207D1044B02E05A6A914202D19A6A98
:1056C0008242F9D3704700BF00000B40F8B5054691
:1056D00006200E4600F0E4F8002842D0354A36484D
:1056E000954214BF4FF080624FF00062334B344953
:1056F00002601A608C6832EA0404FBD12D4B4FF42F
:105700008071EB1AB3FA83F32E4A5B09062022F864
:10571000131000F0C5F8C300B3FBF6F30133DA0948
:1057200020D1402601216962AA622F6BFB0722D497
:105730002B46002253F82C1F062003F580542260CC
:105740002F6300F0ADF840F2013103228000B0FB7E
:10575000F6F0EB6A83F0700303F07E0323602963A5
:10576000AA64F8BD4FF6FE718A421BD922464FF655
:10577000FF71154ED7E740F2013205F540531A6329
:105780006B6AAC6A062004EB831400F089F80F4BB7
:10579000A402A3FB0023DB0A0021B4FBF3F0FFF714
:1057A00051FFC5E7C3F34503114603EB82161A46C2
:1057B000B9E700BF008007400020024000300240EF
:1057C00000000240FC230020C0FF3F00757B2B8FB0
:1057D00000EB400C4FEA8C0C0CF1804C0CF5803C3B
:1057E000F0B51646DCF80420051FB2F5803F38BF3F
:1057F0004FF48032EDB238BFCCF80420012D2AD905
:105800004FF40067254C0CF54052176054F82020E7
:10581000B2B9DCF80020012D82EA461202F0E00263
:105820000CF5805632602AD94FF4006144F82030DC
:105830004FF480330CF500521160CCF80430F0BD09
:105840006769B7FBF2FE0EF1010E0EEB4E0EBEF1D4
:10585000030EFCD2DDE70129D2D103240CF540521E
:105860001460DCF80820D207FBD5DCF800200B4CD4
:1058700082EA461202F0E0020CF580563260012204
:10588000DCF800504D4005F00305356002FA01F1E7
:10589000DCF808200A42FBD0C6E700BF281400202D
:1058A000014B53F8200070472814002070B4039D6A
:1058B00004682D0345EA03451B4B002CB3FBF1F3B1
:1058C000B2FBF3F61FDB194A194B904214BF4FF499
:1058D00080424FF40042174C1A6003F580531A605F
:1058E000A36832EA0303FBD1212200F540530433BD
:1058F000016086601A600268002AFCDA0822C5602E
:105900001A6070BC7047036803F03F038B42DAD122
:105910008368C3F30B03B342D5D1C36803F4EE230A
:10592000AB42D0D1EDE700BF001BB70000800540BF
:10593000002002400000024030B44FF080441C4B75
:105940001C60E0B11B4CA3F54053DC611A4C40F0E5
:10595000010044401C62596298624FF080454FF04C
:10596000E061134B1548164C1D60846019604AB9FC
:1059700030BC4FF00042A3F580531A607047114BC2
:10598000D861EAE74FF47A7303FB02F2B2F1807F49
:105990002ABF6FF07F4313461A464FF080410A4CEE
:1059A00008482360094B426030BC1960704700BF53
:1059B00000B00D40D3C007B02D3FF84F00A001400C
:1059C000F3FFFF0100800D406C1B002000A00D4084
:1059D000012300EB4000800000F1804000F58410BE
:1059E00041600360704700BF002370B5DB8A044646
:1059F0000D461646002242E800F2520254BF102122
:105A0000042144F252209847864633462A462046CF
:105A1000F446BDE870400A21604700BF0023DB8ADE
:105A2000002242E800F2520201D41021184704215A
:105A3000184700BF08B51346021E02DB5BB141F0F8
:105A400030018B0603D50023DB7C022B06D04FF4FC
:105A50008170FFF7C9FF41F02001F2E74FF4917028
:105A6000FFF7C2FF034AD2F82838002BFBD0BFF360
:105A70005F8F704700000E400021044B044ABFF3C3
:105A80005F8F43F8041B9342F9D170470C080E4016
:105A90002C080E4010B44FF48D704FF42A64064A5F
:105AA000064B07491460D06019605368002BFCDA7C
:105AB0005DF8044B704700BF0080044000A0044024
:105AC00000B0FA00704700BF08B50148FEF77AFD44
:105AD0003CB9001038B5054C054DAC4204D254F821
